:0C0000000C9438000C9400000C940000DC
:10000C000C9400000C9400000C9400000C94000064
:10001C000C9400000C9400000C9400000C94000054
:10002C000C9400000C9400000C9400000C94000044
:10003C000C9400000C9400000C9400000C94000034
:10004C000C9400000C9400001027E80364000A00D4
:10005C000100001000011000010080C002006002CD
:10006C0066000000F894EE27ECBBF1E0FBBFEBBFA1
:10007C00E5BF8DE0A2E0BB27ED938A95E9F780E020
:10008C0098E0A0E6ED930197E9F7E8E6F0E08591BA
:10009C009591009761F0A591B59105901590BF01D0
:1000AC00F00105900D920197E1F7FB01F0CFEFE520
:1000BC00EDBFE8E0EEBFC0E6D2E00C946500E0E0F6
:1000CC00EABBEBBBE7BBE8BBE4BBE5BBE0E8E1BBF1
:1000DC00E0E0E2BBE3BFE2BFECBFEFBDEEBDEDBDC8
:1000EC00ECBDE7BDE6BDEBBDEABDE9BDE8BDE2BDDB
:1000FC00E5BDE4BDE3BDE9BFE5BFE4BFEBB9E0E1BD
:10010C00EAB9E6E8E0BDE0E0E0BDE3E3E9B9E0E848
:10011C00E8B9E0E0E0BFE6B9EDB9E6BFA0E168D030
:10012C0047D0E0E0EA93A0E036D00E942B011E2FCE
:10013C001B3111F01D3009F402C0A12F45D01D3028
:10014C0029F4E0E0EA93A1E026D003C01B3109F4C6
:10015C002FD0E7CFFFCFAA93EBB3EF70AE2FE88190
:10016C00E07FEA2BEBBB82E08A95F1F7DA9A82E02A
:10017C008A95F1F7DA9882E08A95F1F764C0AA9330
:10018C00A881E9DFE881E295E883A881E4DF81E1D9
:10019C008A95F1F758C0AA93E881F0E0E05AFD4F38
:1001AC00E081A981AE0FEBDF59804880229608953B
:1001BC00A2E00E942F01ACE0E2DFA1E00E942F013F
:1001CC00E0E04E2E5E2E0895AA93A881AA3011F07D
:1001DC00571440F0E0E0EA934394A42DDCDFA881AF
:1001EC00AA3089F15394D89AA881C9DFD8982BC02A
:1001FC00AA93EAB3E06FEABBD29AD09AD19ADA9872
:10020C00D898D9987880E881E058E0936202E88128
:10021C00E054E0936302A4E1B0E00E943C010E9430
:10022C0035010E9435010E943501A0E294DF81E284
:10023C008A95F1F7A8E2A3DFA4E0A1DFA5E89FDF90
:10024C00A6E09DDFB5DF219608955F9BFECFECB154
:10025C0008950E94C500A3E0B0E00C943C01A0E31B
:10026C000E94B10081E28A95F1F70895109639F059
:10027C008AEF90E00197F1F7A8951197C9F70895C7
:00000001FF
