:080000000C942A000C9400008E
:100008000C9400000C9400000C9400000C94000068
:100018000C9400000C9400000C9400000C94000058
:100028000C9400000C9400000C9400000C94000048
:100038000C9400000C9400000C9400000C94000038
:100048000C9400000C9400000C940000F894EE2727
:10005800ECBBF1E0FBBFEBBFE5BF8DE0A2E0BB2747
:10006800ED938A95E9F780E098E0A0E6ED93019793
:10007800E9F7EFE5EDBFE8E0EEBFC0E6D2E00C94AB
:10008800450010E000E0EFEFE7BBEABB1BBB08BB95
:10009800A2E3B0E00E945A001F5F1A3028F010E077
:1000A8000F5F0A3008F000E0F1CFFFCF109639F06B
:1000B8008AEF90E00197F1F7A8951197C9F708958D
:00000001FF
