:080000000C942F000C94000089
:100008000C9400000C9400000C9400000C94000068
:100018000C9400000C9400000C9400000C94000058
:100028000C9400000C9400000C9400000C94000048
:100038000C9400000C9400000C9400000C94000038
:100048000C9400000C9400000C940000C0F9A4B0BB
:10005800999282F88090F894EE27ECBBF1E0FBBF10
:10006800EBBFE5BF8DE0A2E0BB27ED938A95E9F7EA
:1000780080E098E0A0E6ED930197E9F7EFE5EDBFA2
:10008800E8E0EEBFC0E6D2E00C944A002E978AE082
:10009800A0E0B0E0E4E5F0E00E94BD00EFEFEABBCD
:1000A800E7BB00E010E00031E7E21E0770F5D80179
:1000B800E8EEF3E00E94A700EA87D801E4E6F0E062
:1000C80026D0EB87D801EAE0F0E021D0EC87D80110
:1000D800EAE0F0E00E94BA00ED8730E0323090F4B8
:1000E800EEEFE8BBEC851BD0EDEFE8BBEB8517D056
:1000F800EBEFE8BBEA8513D0E7EFE8BBED850FD05F
:100108003F5FECCF0F5F1F4FCECFCBCFFFCF0E940B
:10011800A700DF01EAE0F0E00E94BA000895F0E0ED
:10012800DE01AE0FBF1FEC91EBBBA5E0B0E00C9475
:100138009D00109639F08AEF90E00197F1F7A895A5
:100148001197C9F708950024112490E1AA0FBB1F45
:10015800001C111C0E1A1F0A18F40E0E1F1E01C0D7
:10016800A1609A9599F7FD01D0010895ECDFFD0192
:100178000895AC0FBD1F05900D928A95E1F708957B
:00000001FF
