:060000000C944F000C946B
:1000060000000C9400000C9400000C9400000C946A
:1000160000000C9400000C9400000C9400000C945A
:1000260000000C9400000C9400000C9400000C944A
:1000360000000C9400000C9400000C9400000C943A
:1000460000000C9400000C9400000C940000413A4F
:1000560025342E31662000423A25342E316600467C
:10006600616E3A204F4E2020200046616E3A204FA6
:100076004646202000002D4E414E000080C0010063
:100086002D4E414E00494E46000002009402820069
:100096000100980284000000F894EE27ECBBF1E022
:1000A600FBBFEBBFE5BF8DE0A2E0BB27ED938A95D2
:1000B600E9F780E098E0A0E6ED930197E9F7E0E93B
:1000C600F0E085919591009761F0A591B591059025
:1000D6001590BF01F00105900D920197E1F7FB0124
:1000E600F0CFEFE5EDBFE8E0EEBFC0E6D2E00C945E
:1000F6008B00AA93E881E06CE7B983E08A95F1F773
:10010600369A349BFECF349AE4B1F5B10C944C0583
:10011600E0E8EABBE0E0EBBBE0E8E7BBE0E0E8BB39
:10012600E4BBE5BBE1BBE2BBE3BFE2BFECBFEFBDB7
:10013600EEBDEDBDECBDE7BDE6BDEBBDEABDE9BD7F
:10014600E8BDE2BDE5BDE4BDE3BDE9BFE5BFE4BF93
:10015600EAB9E0E8E8B9E0ECE7B9E3E8E6B9E0E0F7
:10016600E0BFEDB9E6BFA0E10E942105A3E0C1DF33
:10017600ACE6B2E00E945C06A2E0BBDFA0E7B2E01C
:100186000E945C06A0916C02B0916D0280916E0295
:1001960090916F020E946306E0936002F093610201
:1001A6006093620270936302A0917002B091710233
:1001B60080917202909173020E946306E09364023A
:1001C600F093650260936602709367020E946A0666
:1001D600A0916002B09161028091620290916302E7
:1001E6000E947306E0E0F0E060E070E40E94CC0854
:1001F600E0936802F093690260936A0270936B025F
:10020600E4E7F2E0FA93EA93E4E5F0E0FA93EA939E
:10021600E0916002F0916102609162027091630266
:100226000E947806ECE7F2E0FA93EA93EDE5F0E057
:10023600FA93EA930E946A060E947806A0916802E1
:10024600B091690280916A0290916B02E0E0F0E061
:1002560060EF71E40E94110940F0C79AE4E8F2E009
:10026600FA93EA93E5E6F0E007C0C798E4E8F2E01F
:10027600FA93EA93E0E7F0E0FA93EA9380E00E94CB
:100286008E042496E0E0EA93A0E00E94E204A4E74C
:10029600B2E00E941005E0E0EA93A9E00E94E204C1
:1002A600ACE7B2E00E941005E0E0EA93A1E00E940C
:1002B600E204A4E8B2E00E941005A4E6B0E00E94C1
:1002C6007E0754CFFFCFBA93AA931A930A93AA81B3
:1002D600BB8112960E949C09309729F1AA81BB81A5
:1002E60014960E949C098F01309761F00230E0E07D
:1002F6001E0780F0F80131978F01AA81BB81149601
:10030600ED93FC93AA81BB8112960E947F063197DA
:10031600AC81A083AA81BB810E949C09FF2312F0B5
:100326000E947F0606C0AA81BB81EFEFFFEFED9327
:10033600FC9319810881259608950E948506E0E8B8
:10034600EA83EFE3EB830E94D709EE85FF85EF3F53
:10035600AFEFFA0749F4E885F985FA93EA93ACE733
:10036600B0E00E944E05B9C0EF3FAFE7FA0749F487
:10037600E885F985FA93EA93ADE7B0E00E944E0569
:10038600ACC0AB85A73010F0E6E0EB871B85E12F0C
:100396001150E03019F00E948C06F9CFEC85FD85EE
:1003A6006E857F850E94D10921F430E00E948C067B
:1003B6002FC03B850E949B0609F008F40BC00E94E3
:1003C6008C060E949B0628F00E94A6060E94AB0699
:1003D600F8CF0DC00E949B0640F40E94A6060E941C
:1003E600B7060E94BE063150F5CF0E948C06EC85FA
:1003F600FD856E857F850E94C3060E942E080E9499
:10040600BE060E949B0620F00E94A6060E94AB062E
:1004160010E0EB85E117A8F1AC81BD818E819F814B
:100426000E94C8060E94C3060E9473060E94A50584
:10043600EC83FD836E837F830E94A6060E94CC0810
:100446000E94BB070E2F0E94CF060E94D606FF27EA
:10045600662777270E94F407AC81BD818E819F8134
:100466000E947E080E94A6060E94DB060E94BE0627
:10047600E12F1F5FE03069F60E94CF06EEE2EC93B3
:10048600C8CF0E94E0063197AA85A08330302CF4AD
:100496003195A885B985EDE203C0A885B985EBE25B
:1004A600EC930E94E0060E94E0063197BF01A32F5D
:1004B600EAE00E945609E05DDB01EC930E94E0064B
:1004C6003197BF01A32FEAE00E948009E05DDB01BE
:1004D600EC93A885B985E0E0EC930E94DE0960966E
:1004E6000895BA93AA93EF9761970E94D50910E0F1
:1004F600FE01E85AFF4F0190F081E02DE887F98769
:10050600FE01EA5AFF4F0190F081E02DEE83FF8352
:10051600AE81BF81E0E0F0E0ED93FC93DE01A45AEA
:10052600BF4F0E947F063197E4912E2FE03009F4E9
:10053600E9C1E12FE03039F4253211F411E002C0AF
:100546000E94E606DEC1E130C1F4253219F40E94AC
:10055600E606D6C112E0E0E0ED8B00E02D3211F4A4
:1005660001E0CFC12B3219F4EBE2ED8BCAC1203288
:1005760019F4E0E2ED8BC5C102C0E23039F450E077
:1005860013E0203311F40068BCC102C0E33091F4DB
:10059600203310F02A3308F007C0AAE05A9F502DE6
:1005A600E22FE0535E0FADC140E02E3211F414E0AD
:1005B600A8C10FC0E43099F4203310F02A3308F0B4
:1005C60008C00062AAE04A9F402DE22FE0534E0F7A
:1005D60098C12C3619F4026015E093C103C0E530CA
:1005E60009F08FC1E22FE33659F40E94ED060E940E
:1005F600F4060E94ED06A481AA930E94FB0680C120
:10060600E53411F0E53609F403C0E63609F048C0D2
:10061600FE017696EE87FF870E9401070E94A009D9
:100626000E9408070E940D07AD85AA2332F0AD8906
:10063600AB3259F0A03281F017C00E940F070E941A
:1006460088070E940807EDE2ED8B07FF05C0ED89DC
:10065600EA930E94FB0608C0EE85FF853196EE8779
:10066600FF873197AD89A08305FF46E0263651F412
:100676000E940F070E94BA094A93AB89BC890E945F
:10068600BC0509C00E940F070E94BA094A932A9323
:10069600AC89BD8952DEFE0176960E9414071EC003
:1006A600E33739F40E940D070E941C070E941407C5
:1006B6000EC0E037C1F40E940D070E941C07EE87AA
:1006C600FF87AE85BF850E9467051E2F08600F77DE
:1006D600403011F0411708F001C0142F40E0E0E06F
:1006E600EC8B30E06DC0E43611F0E93611F40460AD
:1006F60002C0E537A1F4EAE0EC8B01FF08C0E0E0B8
:10070600FAEC6AE97BE30E9421071AE022C0E0E1E5
:10071600F7E260E070E00E94210715E01AC0E835B4
:1007260011F4086003C0E83709F0EAC0E0E1EC8B99
:1007360001FF08C0E0E0F0E060E070E10E94210700
:1007460018E007C0E0E0F0E160E070E00E942107F9
:1007560014E0403011F00F7701C041E001FF08C0FE
:100766000E940D070E94010714960E94A0090FC05F
:1007760002FF07C00E940D070E941C070E94430942
:1007860006C00E940D070E941C0766277727EA8786
:10079600FB876C877D8702FF12C0AD85AA2342F4D2
:1007A6000E940F070E9435090E940807EDE2ED8BB3
:1007B600ED89E03019F01F5F4F5F01C00B7F342FCA
:1007C60000FD14C0151710F4351708F00FC007FF09
:1007D60008C002FF04C00B7F2D89115001C020E321
:1007E60001C020E20E94E6065150ECCF141790F4A7
:1007F600006102FF06C00E94260709F05150115001
:100806004150E0E3EA930E94FB06503009F0515054
:100816004150ECCF312FEC89E030B9F43030A1F003
:1008260003FF06C0EE85FF852591EE87FF8705C08D
:10083600AE85BF852D91AE87BF870E94E6065030F4
:1008460009F051503150EACF51C00E9438070E943A
:100856005B092E2F2A3030F003FF02C0295C01C04D
:10086600295A01C0205D04FD21C0213360F4A88906
:10087600B9898A899B89A130E0E0BE07E0E08E074E
:10088600E0E09E0709F40BC0431740F4531710F03D
:1008960000FF01C010C020E207FF08C020E300618E
:1008A60002FF04C00E94260709F051500E94E60686
:1008B600503009F0515031500E9438070E948C097F
:1008C6000E940807EC89A889B9898A899B89FF272C
:1008D600662777270E945B090E942107E889F98924
:1008E6006A897B890E94D10909F0AFCF00FF08C051
:1008F600503031F05150E0E2EA930E94FB06F8CF07
:1009060010E00CCEAE81BF810E949C090E94DC09DA
:10091600EF966F960895FF92F82E26970E94D709B4
:100926000E944107309719F4EFEFFFEF23C0DE0175
:1009360016960E9431098D010E944107EE83FF83BE
:10094600E0E0E887E987DE011A960E9431090E94F5
:100956009C09FA93EA931A930A93E6E6F1E0FA936E
:10096600EA93DE011A96BDDD9F01AE81BF81E0E00C
:10097600EC93F9010E94DE092A96FF900895AA9346
:10098600E5B3EF70AE2FE881E07FEA2BE5BB82E0AE
:100996008A95F1F7AA9A82E08A95F1F7AA9882E0F9
:1009A6008A95F1F776C0AA93A881E9DFE881E295F6
:1009B600E883A881E4DF81E18A95F1F76AC0AA930A
:1009C600E881F0E0EC56FD4FE081A981AE0FEBDF48
:1009D6005980488022960895A2E00E944807ACE01C
:1009E600E2DFA1E00E944807E0E04E2E5E2E089569
:1009F600AA93A881AA3011F0571448F0E0E0EA93D0
:100A06004394A42DDCDFA881AA3009F442C0539494
:100A1600A89AA881C8DFA8983CC0BA93AA931A934B
:100A2600A981BA81ED91A983BA831E2FE03019F00E
:100A3600A12FDEDFF5CF188123960895AA93E4B39C
:100A4600E06FE4BBA29AA09AA19AAA98A898A9983E
:100A56007880E881E058E0939602E881E054E093DC
:100A66009702A4E1B0E00E947E070E944E070E9412
:100A76004E070E944E07A0E282DF81E28A95F1F7D7
:100A8600A8E291DFA4E08FDFA5E88DDFA6E08BDF8B
:100A9600A3DF21960895BA93AA93E991F991A991B2
:100AA600B991CD0105900D920020E1F7FC01089562
:100AB600BA93AA93A991B991EE27FF276D91662360
:100AC60011F03196FBCF0895BA93AA93AA27BB27B4
:100AD600E991F9910590002011F01196FBCFFD01E7
:100AE60008950E94BF097B816A81F981E88177FBBD
:100AF600770F67FD7160972F9E5781F078F09831D8
:100B060090F4AA27BB27882708948795B795A795B9
:100B16009A95D1F7EA23FB23682305C0E894772743
:100B2600EE27FF2766276F77769508F4606877F9D2
:100B3600A991B99189919991EA17FB0768077907F5
:100B460097FB08950E94BF090E94B0090E94740590
:100B56000E94B50919F40E94AB0909C0E6F70E9484
:100B6600AB09A0E0B0E080E89FE30E942708249646
:100B76000895C8D0E0E0EA83EFE3EB831A930A9383
:100B8600EB85FC85EF3FAFEFFA0731F48BD1A6E892
:100B9600B0E00E944E0589C0EF3FAFE7FA0731F497
:100BA60081D1A7E8B0E00E944E057FC0AC85AA239C
:100BB60052F4E985FA856B857C850E94880777D192
:100BC6007BD1EDE2EC93A885A73010F0E6E0E8874C
:100BD6001885E12F1150E03021F075D1D6D078D1AB
:100BE600F8CF7BD10E942E0862D110E0E0E0F0E061
:100BF60060E87FE36DD171D10E94110968F063D17D
:100C0600B3D066D11F5F173230F04CD1ABE8B0E0FD
:100C16000E944E054AC0EFCF103021F44DD1E0E3DB
:100C2600EC931FC0E12F1150E030D9F04CD1ADD07C
:100C3600A7D056D00E94A5054BD14FD10E94CC0813
:100C46000E94BB070E2F38D1AED0F0E03CD10E94F7
:100C560043090E94F4070E947E0848D1A9D027D1F3
:100C6600E1CFE885E030E9F027D1EEE2EC93E885C4
:100C7600E150E887EF5FA9F039D176D018D1E98540
:100C8600FA856B857C850E94BB070E2F15D18BD00C
:100C9600F0E02CD10E9443090E94F40789D007D1C5
:100CA600E6CFAE81BF81E0E0EC93198108812D96F5
:100CB6000895662777270E94F4070E94A6090895DB
:100CC600E0E0F0E060E870E40E94CC080895E0916E
:100CD6006402F09165026091660270916702089560
:100CE6000E942E08DF01CB0108950E94BA0984E014
:100CF6000E948E0428960895ED91FD913196FE93FB
:100D0600EE930895BA93AA932497E0E0E883E983E3
:100D16000895AC81BD818E819F81E0E0F0E060E2C4
:100D260071E40E947E08EC83FD836E837F830895C1
:100D3600EC81FD816E817F81AC85BD858E859F8529
:100D46000E9411090895AC85BD858E859F850895FD
:100D5600EDECFCEC6CEC7DE30E947E08EC87FD87F5
:100D66006E877F873F5F0895E0E0F0E060E271E420
:100D76000E947E080895EC87FD876E877F87089519
:100D8600A0E0B0E080E09FE30895EDECFCEC6CECB5
:100D96007DE30E947E080895A885B9851196A887E7
:100DA600B98711970895E02FE05DEC93E02F089541
:100DB6000E94C4090E9427080895E885F98531969E
:100DC600E887F98708952A93AF81B885E985FA857A
:100DD60009950895FE01E65AFF4F0190F081E02D36
:100DE60008953497DE01A65ABF4FED93FC930895FC
:100DF600AF81B885E985FA8509950895DE01A65A79
:100E0600BF4F0D90BC91A02D0895EA87FB876C8794
:100E16007D870895DFDFE5CFEA85FB856C857D85D7
:100E26000895EE87FF87AE85BF850E945B051E2F5E
:100E36000895E4DF14960E949C090895E88BF98BC7
:100E46006A8B7B8B08950B7FED89EA93DE01A95AA5
:100E5600BF4F0D90BC91A02DFE01E75AFF4F0190A8
:100E6600F081E02D099550300895E889F9896A895D
:100E76007B89AA85BB858C859D850895DE011C9698
:100E86000E9431090E949C0908950E94D604A3E09D
:100E9600B0E00C947E07A0E30E94C20481E28A952A
:100EA600F1F70895EE81FF81FA93EA930895E987B1
:100EB600FA876B877C870895AE81BF811196AE83D2
:100EC600BF8311970895AA81BB818C819D81089566
:100ED600EA83FB836C837D830895EA81FB816C81C1
:100EE6007D81A985BA858B859C850895A985BA8556
:100EF6008B859C850895109639F08AEF90E00197CE
:100F0600F1F7A8951197C9F708953097604070409A
:100F160009F070580895552342F4503811F4E0FF53
:100F260004C03196691F791F6BF050E8572711F4FA
:100F36005F93CFC05F3F31F0660F000C5795679502
:100F4600752F08955F9300200AF0CFC0C8C050E8FF
:100F5600192E1522880F991F9527550F879550E84A
:100F6600072E0522660F771F7527550F679508957B
:100F7600689401C0E8945F93F2DF703818F07F3F01
:100F860008F4A7C056E1571BAAF4519558300EF441
:100F9600593030F0EFEFFFEF6FEF7FE777F91AC0C8
:100FA60077275523B9F0EE0FFF1F661F771F5A9557
:100FB600D1F710C07727583028F0EF2FF62F672F7C
:100FC6005850F9CF552331F076956795F795E79503
:100FD6005A95D1F700200AF445D15F910895689497
:100FE60001C0E894309760407040B1F0002426F0CC
:100FF600772312F4009436D1172E7EE1112032F0B9
:101006007A95EE0FFF1F661F111CF9CFEF2FF62FF3
:10101600612D5F938ADF5F9108954F93AF01FD01C4
:10102600DA01AB01BC01CA01402D012C142E4F91EF
:101036000895EA0FFB1F681F0895E095F0956095E7
:10104600EF5FFF4F6F4F08955F9381DF903871F127
:1010560050E8152604C05F937ADF903839F170386E
:1010660021F1572F591B2BF112F4D7DFFACF583144
:1010760018F0AA27BB278827583028F0AB2FB82F9F
:1010860088275850F9CF552329F08695B795A79507
:101096005A95D9F7502D512572F0CBDF38F4679564
:1010A600F795E795739513F420C0B7DF3EDF5F91A0
:1010B6000895D8F7FBCFEA1BFB0B680B51F010F431
:1010C6000094BBDF662392F3EE0FFF1F661F7A952F
:1010D600CBF7EE27FF27662777275F910895EFEF77
:1010E600FFEF6FE77FEF5F910895EFEFFFEF6FE799
:1010F6007FE75F9108955F932ADF703851F3903848
:1011060041F301240894791F23F41CF300203AF3D9
:10111600ECCF0F921F932F933F934F9311272227C4
:101126009927689FA0018F9F302D410D591F6B9FF6
:10113600300D411D591F8E9F27D0BF9F25D06A9F16
:1011460023D0BE9F1DD0AF9F1BD0AE9F110D291F70
:10115600391F491F591FE32FF42F652F522F4F9127
:101166003F912F911F910F9066232AF0550FEE1F86
:10117600FF1F661F02C073954BF2CDDE5F91089587
:10118600100D211D391F02C0200D311D491F591F89
:1011960008955F93DCDE703821F411200AF49FCFA6
:1011A600A4CF903809F495CF01240894970B1BF42B
:1011B600D4F30020F3CF792F1F932F933F934F93B0
:1011C60011241127222733274427552790E2AE17EB
:1011D600BF078607410730F0AE1BBF0B860B410BDE
:1011E600089401C08894551F221F331F111CAA1F83
:1011F600BB1F881F441F9A9551F7F901612D4F9126
:101206003F912F911F91662332F0550FEE1FFF1F5E
:10121600661F7A9543F27FDE5F91089599239AF0CF
:10122600772342F0971748F029F4AE17BF078607D1
:1012360020F031F09894889408959894089408952D
:101246001894889408957723C2F7971798F3A9F707
:10125600EA17FB07680788F399F3ECCF0024AF0D74
:10126600B01D0895F09560957095E195FF4F6F4F0D
:101276007F4F0895FE2FFF0FFF0B6F2F7F2F0895CF
:101286006F2F660F660B762F0895002498E0AA0F3D
:10129600001C0E1A10F40E0E01C0A1609A95B9F743
:1012A600EA2FA02D089539D0F0DF0EF4E1950895C8
:1012B6003F934F935F93002411244427552730E230
:1012C600AA0FBB1F881F991F001C111C441F551F06
:1012D6000E1A1F0A460B570B28F40E0E1F1E461F2A
:1012E600571F01C0A1603A9559F7FD01BC01D00115
:1012F600CA015F914F913F910895E894A7FF02C0FC
:10130600A1956894E7FDE195C0DFEA2F0EF4E1951B
:101316000895CEDFFD01BC010895E894E7FF02C001
:10132600E1956894A7FF04C0A19500F8039400FA1C
:101336000895ED91FC9111970895ED91FD916D91B0
:101346007C9113970895ED93FD936D937C93089587
:10135600E881F9816A817B810895A881B9818A81B2
:101366009B810895E883F9836A837B8308957A9342
:101376006A93FA93EA9308959A938A93BA93AA93EF
:101386000895182E862F612D192E972F712D1B2E3D
:10139600BF2FF12D1A2EAE2FE12D08953097604004
:1013A600704008955A934A933A932A931A930A934C
:1013B60008955D814C813B812A81198108810895B8
:00000001FF
