:0E0000000C9498000C9400000C9400000C94DA
:10000E0000000C9400000C9400000C9400000C9462
:10001E0000000C9400000C9400000C9400000C9452
:10002E0000000C9400000C9400000C9400000C9442
:10003E0000000C9400000C9400000C9400000C9432
:10004E0000000C9400000000253032643A25303256
:10005E00643A2530326400253032642F2530326404
:10006E002F3230253032640053657420486F75721C
:10007E003A2020202020202000536574204D696EE8
:10008E007574653A20202020200053657420446149
:10009E00793A202020202020202000536574204D06
:1000AE006F6E74683A202020202020005365742043
:1000BE00596561723A2032302020202000002D4EEA
:1000CE00414E000080C001002D4E414E00494E466B
:1000DE00000001000B0054001100600276000300C6
:1000EE0071028400110074028700030085028400EF
:1000FE0011008802980003009902840011009C02EE
:10010E00A9000300AD0284001100B002BA00030082
:10011E00C10284000200E602D2000100ED02D4000A
:10012E000000F894EE27ECBBF1E0FBBFEBBFE5BFA0
:10013E008DE0A2E0BB27ED938A95E9F780E098E089
:10014E00A0E6ED930197E9F7E0EEF0E08591959149
:10015E00009761F0A591B59105901590BF01F00142
:10016E0005900D920197E1F7FB01F0CFEFE5EDBFA2
:10017E00E8E0EEBFC0E6D2E00C94C500E0E0EABBDA
:10018E00EBBBE7B3E87FE7BBE8B3E87FE8BBE0E0B3
:10019E00E4BBE5BBE0E8E1BBE0E0E2BBE3BFE2BF0E
:1001AE00ECBFEFBDEEBDE2BDE5BDE9BFE5BFE4BF0F
:1001BE00EAB9E0E8E8B9E0E0E0BF0E94E609E0E075
:1001CE00EA93E1E0EA93A0E00E943006A0E10E94EB
:1001DE000B07EB2DF0E0309709F071C0E5E0F0E091
:1001EE00FA93EA93E4E0F0E00E9484080E948A0801
:1001FE00E6E5F0E0FA93EA93E52D0E948F08E42DF0
:10020E000E948F08E72D0E948F088CE00E94FC054B
:10021E006096E4E00E9495080E949908E0E0F0E004
:10022E00FA93EA93E6E0F0E0FA93EA93E9E0F0E07D
:10023E00FA93EA93A8E0B0E00E946F06E4EDF2E0D4
:10024E00FA93EA93E5E6F0E0FA93EA93E62D0E943C
:10025E008F08E92D0E948F08E82D0E948F088CE0F0
:10026E000E94FC056096E3E0EA93A1E00E94BB06C3
:10027E00A4EDB2E00E94FA06B09920C00E949D083B
:10028E00B09BFECFEAE0F0E0FA93EA93EDE0F0E007
:10029E000E948408E0E0F0E0FA93EA93ECE0F0E0EC
:1002AE00FA93EA93E4EEF2E0FA93EA93A5EEB2E063
:1002BE000E946F06E1E0BE2E0E94CC066EC1E130B8
:1002CE00A0E0FA07E9F5E0E00E949508A0E6B2E0AA
:1002DE000E94FA06B19909C00E949D08B19BFECFFB
:1002EE00A394E7E1EA1508F4AA24B2990AC00E9481
:1002FE009D08B29BFECFEA2DAA94E03011F4E7E1FF
:10030E00AE2EB09909C00E949D08B09BFECFE2E0D0
:10031E00BE2E0E94CC065DCFEAE00E9495080E9498
:10032E008A080E94A108EA2D0E948F080E94A60842
:10033E000E94AB08EAE00E949508A1E7B2E029C14D
:10034E00E230A0E0FA07E9F5E0E00E949508A4E7A4
:10035E00B2E00E94FA06B19909C00E949D08B19BB5
:10036E00FECFD394EBE3ED1508F4DD24B2990AC069
:10037E000E949D08B29BFECFED2DDA94E03011F471
:10038E00EBE3DE2EB09909C00E949D08B09BFECF14
:10039E00E3E0BE2E0E94CC061CCFECE00E94950836
:1003AE000E948A080E94A108ED2D0E948F080E94CB
:1003BE00A6080E94AB08ECE00E949508A5E8B2E002
:1003CE00E8C0E330A0E0FA07F1F5E0E00E949508FE
:1003DE00A8E8B2E00E94FA06B1990AC00E949D08F0
:1003EE00B19BFECFC394EFE1EC1510F4E1E0CE2EFD
:1003FE00B2990AC00E949D08B29BFECFEC2DCA9402
:10040E00E23010F4EFE1CE2EB09909C00E949D08A3
:10041E00B09BFECFE4E0BE2E0E94CC06DACEE9E021
:10042E000E9495080E948A080E94A108EC2D0E9445
:10043E008F080E94A6080E94AB08E9E00E9495086A
:10044E00A9E9B2E0A6C0E430A0E0FA0709F048C07E
:10045E00E0E00E949508ACE9B2E00E94FA06B1997C
:10046E000EC00E949D08B19BFECFA091E402AF5F2B
:10047E00A093E402AD3018F0E1E0E093E402B2990B
:10048E000FC00E949D08B29BFECFA091E402A15026
:10049E00A093E402AF5FA23018F4ECE0E093E40224
:1004AE00B09909C00E949D08B09BFECFE5E0BE2E1C
:1004BE000E94CC068ECEEBE00E9495080E948A0820
:1004CE000E94A108E091E4020E948F080E94A608F3
:1004DE000E94AB08EBE00E949508ADEAB2E059C06D
:1004EE00E530A0E0FA0709F058C0E0E00E94950858
:1004FE00A0EBB2E00E94FA06B1990EC00E949D08D0
:10050E00B19BFECFA091E502AF5FA093E502A436AA
:10051E0018F0E0E0E093E502B2990EC00E949D084B
:10052E00B29BFECFE091E502E150E093E502EF5F72
:10053E0019F4E3E6E093E502B09917C00E949D0816
:10054E00B09BFECFAA92DA92A0E00E946206E1E092
:10055E00EA93CA92E091E402EA93A091E5020E9426
:10056E008A06BB240E94CC0634CEECE00E9495088D
:10057E000E948A080E94A108E091E5020E948F085D
:10058E000E94A6080E94AB08ECE00E949508A1EC20
:10059E00B2E00E94FA060E94AB081BCEFFCFBA93C0
:1005AE00AA931A930A93AA81BB8112960E94550CA4
:1005BE00309729F1AA81BB8114960E94550C8F01A8
:1005CE00309761F00230E0E01E0780F0F8013197BD
:1005DE008F01AA81BB811496ED93FC93AA81BB81F6
:1005EE0012960E94AF083197AC81A083AA81BB817D
:1005FE000E94550CFF2312F00E94AF0806C0AA817C
:10060E00BB81EFEFFFEFED93FC93198108812596E7
:10061E0008950E94B508E0E8EA83EFE3EB830E94B9
:10062E008B0CEE85FF85EF3FAFEFFA0749F4E885B7
:10063E00F985FA93EA93ACECB0E00E943907B7C0A3
:10064E00EF3FAFE7FA0749F4E885F985FA93EA93A5
:10065E00ADECB0E00E943907AAC0AB85A73010F010
:10066E00E6E0EB871B85E12F1150E03019F00E9478
:10067E00BC08F9CFEC85FD856E857F850E94850CC3
:10068E0021F430E00E94BC082DC03B850E94CB08AF
:10069E0009F008F40BC00E94BC080E94CB0828F099
:1006AE000E94D6080E94DB08F8CF0DC00E94CB082E
:1006BE0040F40E94D6080E94E7080E94EE083150CE
:1006CE00F5CF0E94BC08EC85FD856E857F850E9466
:1006DE00F3080E94EE080E94CB0820F00E94D60874
:1006EE000E94DB0810E0EB85E117A8F1AC81BD811B
:1006FE008E819F810E94FA080E94F308DF01CB01D0
:10070E000E949007EC83FD836E837F830E94D60840
:10071E000E94850B0E94740A0E2F0E9401090E94EE
:10072E000809FF27662777270E94AD0AAC81BD8195
:10073E008E819F810E94370B0E94D6080E940D0960
:10074E000E94EE08E12F1F5FE03069F60E9401095A
:10075E00EEE2EC93C8CF0E9412093197AA85A083CE
:10076E0030302CF43195A885B985EDE203C0A8850B
:10077E00B985EBE2EC930E9412090E94120931979F
:10078E00BF01A32FEAE00E940F0CE05DDB01EC93AA
:10079E000E9412093197BF01A32FEAE00E94390C83
:1007AE00E05DDB01EC93A885B985E0E0EC930E9457
:1007BE00920C60960895BA93AA93EF9761970E9450
:1007CE00890C10E0FE01E85AFF4F0190F081E02DF8
:1007DE00E887F987FE01EA5AFF4F0190F081E02D7C
:1007EE00EE83FF83AE81BF81E0E0F0E0ED93FC93FA
:1007FE00DE01A45ABF4F0E94AF083197E4912E2F0D
:10080E00E03009F4E9C1E12FE03039F4253211F47A
:10081E0011E002C00E941809DEC1E130C1F4253298
:10082E0019F40E941809D6C112E0E0E0ED8B00E049
:10083E002D3211F401E0CFC12B3219F4EBE2ED8B26
:10084E00CAC1203219F4E0E2ED8BC5C102C0E2301C
:10085E0039F450E013E0203311F40068BCC102C03B
:10086E00E33091F4203310F02A3308F007C0AAE0E9
:10087E005A9F502DE22FE0535E0FADC140E02E3255
:10088E0011F414E0A8C10FC0E43099F4203310F035
:10089E002A3308F008C00062AAE04A9F402DE22FDA
:1008AE00E0534E0F98C12C3619F4026015E093C137
:1008BE0003C0E53009F08FC1E22FE33659F40E94F0
:1008CE001F090E9426090E941F09A481AA930E9453
:1008DE002D0980C1E53411F0E53609F403C0E63682
:1008EE0009F048C0FE017696EE87FF870E94330915
:1008FE000E94590C0E943A090E943F09AD85AA2315
:10090E0032F0AD89AB3259F0A03281F017C00E949F
:10091E0041090E94410A0E943A09EDE2ED8B07FF60
:10092E0005C0ED89EA930E942D0908C0EE85FF856A
:10093E003196EE87FF873197AD89A08305FF46E09C
:10094E00263651F40E9441090E946E0C4A93AB89DF
:10095E00BC890E94A70709C00E9441090E946E0C23
:10096E004A932A93AC89BD8954DEFE0176960E9485
:10097E0046091EC0E33739F40E943F090E944E0912
:10098E000E9446090EC0E037C1F40E943F090E9442
:10099E004E09EE87FF87AE85BF850E9452071E2F38
:1009AE0008600F77403011F0411708F001C0142F86
:1009BE0040E0E0E0EC8B30E06DC0E43611F0E9365B
:1009CE0011F4046002C0E537A1F4EAE0EC8B01FFFC
:1009DE0008C0E0E0FAEC6AE97BE30E9453091AE0F2
:1009EE0022C0E0E1F7E260E070E00E94530915E0FA
:1009FE001AC0E83511F4086003C0E83709F0EAC000
:100A0E00E0E1EC8B01FF08C0E0E0F0E060E070E1B7
:100A1E000E94530918E007C0E0E0F0E160E070E0EA
:100A2E000E94530914E0403011F00F7701C041E0ED
:100A3E0001FF08C00E943F090E94330914960E94CC
:100A4E00590C0FC002FF07C00E943F090E944E09B9
:100A5E000E94FC0B06C00E943F090E944E096627A9
:100A6E007727EA87FB876C877D8702FF12C0AD85EB
:100A7E00AA2342F40E9441090E94EE0B0E943A09F9
:100A8E00EDE2ED8BED89E03019F01F5F4F5F01C095
:100A9E000B7F342F00FD14C0151710F4351708F016
:100AAE000FC007FF08C002FF04C00B7F2D89115035
:100ABE0001C020E301C020E20E9418095150ECCF82
:100ACE00141790F4006102FF06C00E94580909F045
:100ADE00515011504150E0E3EA930E942D095030DD
:100AEE0009F051504150ECCF312FEC89E030B9F480
:100AFE003030A1F003FF06C0EE85FF852591EE870D
:100B0E00FF8705C0AE85BF852D91AE87BF870E943A
:100B1E001809503009F051503150EACF51C00E949F
:100B2E006A090E94140C2E2F2A3030F003FF02C0E7
:100B3E00295C01C0295A01C0205D04FD21C021336A
:100B4E0060F4A889B9898A899B89A130E0E0BE0743
:100B5E00E0E08E07E0E09E0709F40BC0431740F477
:100B6E00531710F000FF01C010C020E207FF08C0AD
:100B7E0020E3006102FF04C00E94580909F05150A1
:100B8E000E941809503009F0515031500E946A09E4
:100B9E000E94450C0E943A09EC89A889B9898A8974
:100BAE009B89FF27662777270E94140C0E94530902
:100BBE00E889F9896A897B890E94850C09F0AFCF93
:100BCE0000FF08C0503031F05150E0E2EA930E942D
:100BDE002D09F8CF10E00CCEAE81BF810E94550CCE
:100BEE000E94900CEF966F960895FF92F82E26971E
:100BFE000E948B0C0E947309309719F4EFEFFFEFF0
:100C0E0023C0DE0116960E94EA0B8D010E94730925
:100C1E00EE83FF83E0E0E887E987DE011A960E9403
:100C2E00EA0B0E94550CFA93EA931A930A93E6ED97
:100C3E00F2E0FA93EA93DE011A96BDDD9F01AE81D2
:100C4E00BF81E0E0EC93F9010E94920C2A96FF908E
:100C5E000895AA93EA81E370EA83E981E03019F0FE
:100C6E00EA81E061EA83E881E03019F0EA81E06828
:100C7E00EA830E947A09A7E00E941F0AAA810E94B5
:100C8E007F09C0C0BA93AA930E947A09A0E00E947D
:100C9E007F090E9483090E948B090E9492090E947B
:100CAE009809AE2F0E946D08AC81BD81EC930E9415
:100CBE00FA0926960895AA930E947A09A0E00E9446
:100CCE009E090E94A4090E94AA090E947F099AC047
:100CDE00BA93AA930E947A09A3E00E947F090E9408
:100CEE008309AE81BF81EC930E949209AC81BD81D4
:100CFE00EC930E9492090E9498090E948B090E940F
:100D0E00FA0928960895AA930E947A09A3E00E94F0
:100D1E001F0AAB810E94AA090E94A4090E949E0983
:100D2E000E947F090C94A507AA93EBB3EF70AE2F28
:100D3E00E881E07FEA2BEBBB82E08A95F1F7DA9A45
:100D4E0082E08A95F1F7DA9882E08A95F1F788C009
:100D5E00AA93A881E9DFE881E295E883A881E4DF20
:100D6E0081E18A95F1F77CC0AA93E881F0E0EA511F
:100D7E00FD4FE081A981AE0FEBDFE981E093EA023E
:100D8E00E881E093EB0222960895A2E00E94B0095A
:100D9E00ACE0DEDFA1E00E94B009E0E0E093EB0200
:100DAE00E093EA020895AA93A881AA3031F0E09167
:100DBE00EC02A091EA02AE1760F0E0E0EA93A09197
:100DCE00EB02AF5FA093EB02CFDFA881AA3009F44C
:100DDE0047C0E091EA02EF5FE093EA02D89AA88159
:100DEE00B7DFD8983DC0BA93AA931A93A981BA8156
:100DFE00ED91A983BA831E2FE03019F0A12FD3DF16
:100E0E00F5CF188123960895AA93EAB3E06FEABB53
:100E1E00D29AD09AD19ADA98D898D998E881E09354
:100E2E00EC02E058E093E802E881E054E093E90236
:100E3E00A4E1B0E00E94370A0E94B6090E94B609EA
:100E4E000E94B609A0E270DF81E28A95F1F7A8E26E
:100E5E007FDFA4E07DDFA5E87BDFA6E079DF95DF0D
:100E6E0021960895BA93AA93E991F991A991B9910E
:100E7E00CD0105900D920020E1F7FC010895BA9383
:100E8E00AA93A991B991EE27FF276D91662311F0D0
:100E9E003196FBCF0895BA93AA93AA27BB27E9915F
:100EAE00F9910590002011F01196FBCFFD010895E8
:100EBE000E94730C7B816A81F981E88177FB770F41
:100ECE0067FD7160972F9E5781F078F0983190F4FE
:100EDE00AA27BB27882708948795B795A7959A9533
:100EEE00D1F7EA23FB23682305C0E8947727EE2782
:100EFE00FF2766276F77769508F4606877F9A991D2
:100F0E00B99189919991EA17FB076807790797FBC1
:100F1E0008950E94730C0E94640C0E945F070E9449
:100F2E00690C19F40E945F0C09C0E6F70E945F0C71
:100F3E00A0E0B0E080E89FE30E94E00A24960895C6
:100F4E000E94B508E0E0EA83EFE3EB831A930A937D
:100F5E00EB85FC85EF3FAFEFFA0739F40E94BD0930
:100F6E00A6EDB0E00E943907ADC0EF3FAFE7FA073C
:100F7E0039F40E94BD09A7EDB0E00E943907A2C066
:100F8E00AC85AA2362F4E985FA856B857C850E947F
:100F9E00410A0E94C2090E94C709EDE2EC93A8859E
:100FAE00A73010F0E6E0E8871885E12F1150E03009
:100FBE0039F00E94CE090E94FA080E94D309F5CF9B
:100FCE000E94D8090E94E70A0E94C20910E0E0E0E0
:100FDE00F0E060E87FE30E94D3090E94D8090E94E6
:100FEE00CA0B88F00E94CE090E94E7080E94D3091E
:100FFE001F5F173238F00E94BD09ABEDB0E00E94C2
:10100E00390760C0EACF103029F40E94C709E0E327
:10101E00EC932BC0E12F1150E03039F10E94CE0934
:10102E000E94FA080E94F308DF01CB010E9490078C
:10103E000E94D3090E94D8090E94850B0E94740A4F
:10104E000E2F0E94C7090E940809F0E00E94CE09E7
:10105E000E94FC0B0E94AD0A0E94370B0E94E10910
:10106E000E940D090E94C209D5CFE885E03031F10A
:10107E000E94C709EEE2EC93E885E150E887EF5F46
:10108E00E9F00E94E1090E94E7080E94C209E98581
:10109E00FA856B857C850E94740A0E2F0E94C70903
:1010AE000E940809F0E00E94E1090E94FC0B0E94D8
:1010BE00AD0A0E940D090E94C209DECFAE81BF812A
:1010CE00E0E0EC93198108812D960895AA93E881AA
:1010DE00E295EF70AE2FAA0FAA0FEA0FEE0FA991AD
:1010EE00AF70EA0F0895AA93A991EE27AA5012F0B5
:1010FE00E05FFCCFA65FEA0F0895FA93EA93A7E0AC
:10110E00B0E00C944906E4ECF2E0FA93EA93089509
:10111E00FF27662777270E946E0C0895EA93A0E0BA
:10112E000C94BB06A4ECB2E00C94FA06A2E3B0E079
:10113E000C94370AE0E6F0E0FA93EA93089584E01F
:10114E000E94FC052896EECFA8ECB0E00C94370A6E
:10115E00ED91FD913196FE93EE930895BA93AA9375
:10116E002497E0E0E883E9830895AC81BD818E8108
:10117E009F81E0E0F0E060E271E40E94370BEC83C7
:10118E00FD836E837F830895EC81FD816E817F8167
:10119E00AC85BD858E859F850E94CA0B0895AC8552
:1011AE00BD858E859F850895EDECFCEC6CEC7DE3A2
:1011BE000E94370BEC87FD876E877F873F5F089510
:1011CE00E0E0F0E060E271E40E94370B0895EC87F6
:1011DE00FD876E877F870895A0E0B0E080E09FE3F3
:1011EE000E94E70A0895EDECFCEC6CEC7DE30E94A6
:1011FE00370B0895A885B9851196A887B9871197D9
:10120E000895E02FE05DEC93E02F08950E94780C96
:10121E000E94E00A0895E885F9853196E887F987F6
:10122E0008952A93AF81B885E985FA8509950895C1
:10123E00FE01E65AFF4F0190F081E02D089534979C
:10124E00DE01A65ABF4FED93FC930895AF81B8858A
:10125E00E985FA8509950895DE01A65ABF4F0D90CE
:10126E00BC91A02D0895EA87FB876C877D87089532
:10127E00DFDFE5CFEA85FB856C857D850895EE87FA
:10128E00FF87AE85BF850E9446071E2F0895E4DFB7
:10129E0014960E94550C0895E88BF98B6A8B7B8B04
:1012AE0008950B7FED89EA93DE01A95ABF4F0D9089
:1012BE00BC91A02DFE01E75AFF4F0190F081E02D69
:1012CE00099550300895E889F9896A897B89AA853C
:1012DE00BB858C859D850895DE011C960E94EA0BC8
:1012EE000E94550C08950E94EB09A0ED0C941F0A64
:1012FE000E941F0A0C94FA090E94EB09A1ED0E94AC
:10130E001F0AA1E00C94040AAE2F0E946D08A8815A
:10131E00B981EC930895A1E00E94040AAE2F0C94BB
:10132E006D08AA81BB81EC93A0E00C94040A0E9484
:10133E001F0AA881D8DEAE2F08950E941F0AA98128
:10134E00D2DEAE2F08950E941F0AAA81CCDEAE2FE8
:10135E0008950E94AF06A3E0B0E00C94370AA0E314
:10136E000E949B0681E28A95F1F70895EE81FF8136
:10137E00FA93EA930895E987FA876B877C87089535
:10138E00AE81BF811196AE83BF8311970895AA8156
:10139E00BB818C819D810895EA83FB836C837D8361
:1013AE000895EA81FB816C817D81A985BA858B8543
:1013BE009C850895A985BA858B859C850895A898E6
:1013CE00A998A09AA19815C0A198A098EE27000000
:1013DE00999B0895989B089504D0A19A02D0A09A43
:1013EE00E1E062E007C0A19AA09A03D0A098F9DFCD
:1013FE00A19863E06A95F1F7089578E0A098F1DF7F
:10140E00989BFECFEEDF889499990894A09AF1DF0D
:10141E00EE1F7A9599F77A2F772311F4A19801C0D0
:10142E00A19ADFDFA098E5DFA09ADBDFA198D9CFE4
:10143E0078E0AA0F10F4A19801C0A19ADADFA09863
:10144E00D0DF989BFECFCDDFA09A7A9591F7A19829
:10145E00C8DFA098CEDFE1E09999EE27A09AC1CF20
:10146E00109639F08AEF90E00197F1F7A895119751
:10147E00C9F7089530976040704009F0705808958C
:10148E00552342F4503811F4E0FF04C03196691F21
:10149E00791F6BF050E8572711F45F93CFC05F3F71
:1014AE0031F0660F000C57956795752F08955F9371
:1014BE0000200AF0CFC0C8C050E8192E1522880FA0
:1014CE00991F9527550F879550E8072E0522660F11
:1014DE00771F7527550F67950895689401C0E89496
:1014EE005F93F2DF703818F07F3F08F4A7C056E123
:1014FE00571BAAF4519558300EF4593030F0EFEFD7
:10150E00FFEF6FEF7FE777F91AC077275523B9F012
:10151E00EE0FFF1F661F771F5A95D1F710C0772762
:10152E00583028F0EF2FF62F672F5850F9CF55234C
:10153E0031F076956795F795E7955A95D1F7002096
:10154E000AF445D15F910895689401C0E8943097EC
:10155E0060407040B1F0002426F0772312F400941E
:10156E0036D1172E7EE1112032F07A95EE0FFF1F45
:10157E00661F111CF9CFEF2FF62F612D5F938ADFB7
:10158E005F9108954F93AF01FD01DA01AB01BC01EC
:10159E00CA01402D012C142E4F910895EA0FFB1F06
:1015AE00681F0895E095F0956095EF5FFF4F6F4FC0
:1015BE0008955F9381DF903871F150E8152604C0CD
:1015CE005F937ADF903839F1703821F1572F591B1C
:1015DE002BF112F4D7DFFACF583118F0AA27BB2718
:1015EE008827583028F0AB2FB82F88275850F9CFBE
:1015FE00552329F08695B795A7955A95D9F7502D6D
:10160E00512572F0CBDF38F46795F795E795739512
:10161E0013F420C0B7DF3EDF5F910895D8F7FBCFFC
:10162E00EA1BFB0B680B51F010F40094BBDF662332
:10163E0092F3EE0FFF1F661F7A95CBF7EE27FF276B
:10164E00662777275F910895EFEFFFEF6FE77FEF44
:10165E005F910895EFEFFFEF6FE77FE75F910895DA
:10166E005F932ADF703851F3903841F301240894C8
:10167E00791F23F41CF300203AF3ECCF0F921F9343
:10168E002F933F934F93112722279927689FA001ED
:10169E008F9F302D410D591F6B9F300D411D591FCE
:1016AE008E9F27D0BF9F25D06A9F23D0BE9F1DD06F
:1016BE00AF9F1BD0AE9F110D291F391F491F591FF8
:1016CE00E32FF42F652F522F4F913F912F911F91A2
:1016DE000F9066232AF0550FEE1FFF1F661F02C0E4
:1016EE0073954BF2CDDE5F910895100D211D391FBC
:1016FE0002C0200D311D491F591F08955F93DCDE76
:10170E00703821F411200AF49FCFA4CF903809F439
:10171E0095CF01240894970B1BF4D4F30020F3CF3C
:10172E00792F1F932F933F934F9311241127222725
:10173E0033274427552790E2AE17BF078607410788
:10174E0030F0AE1BBF0B860B410B089401C0889482
:10175E00551F221F331F111CAA1FBB1F881F441F9A
:10176E009A9551F7F901612D4F913F912F911F914C
:10177E00662332F0550FEE1FFF1F661F7A9543F258
:10178E007FDE5F91089599239AF0772342F09717A1
:10179E0048F029F4AE17BF07860720F031F0989471
:1017AE0088940895989408940895189488940895A8
:1017BE007723C2F7971798F3A9F7EA17FB0768077D
:1017CE0088F399F3ECCF0024AF0DB01D0895F0957A
:1017DE0060957095E195FF4F6F4F7F4F0895FE2FE7
:1017EE00FF0FFF0B6F2F7F2F08956F2F660F660B66
:1017FE00762F0895002498E0AA0F001C0E1A10F4FC
:10180E000E0E01C0A1609A95B9F7EA2FA02D08958A
:10181E0039D0F0DF0EF4E19508953F934F935F9327
:10182E00002411244427552730E2AA0FBB1F881F1E
:10183E00991F001C111C441F551F0E1A1F0A460B20
:10184E00570B28F40E0E1F1E461F571F01C0A16016
:10185E003A9559F7FD01BC01D001CA015F914F9134
:10186E003F910895E894A7FF02C0A1956894E7FD03
:10187E00E195C0DFEA2F0EF4E1950895CEDFFD016C
:10188E00BC010895E894E7FF02C0E1956894A7FFB4
:10189E0004C0A19500F8039400FA0895ED91FC910F
:1018AE0011970895ED91FD916D917C911397089587
:1018BE00E881F9816A817B810895A881B9818A8145
:1018CE009B810895E883F9836A837B8308957A93D5
:1018DE006A93FA93EA9308959A938A93BA93AA9382
:1018EE000895182E862F612D192E972F712D1B2ED0
:1018FE00BF2FF12D1A2EAE2FE12D08953097604097
:10190E00704008955A934A933A932A931A930A93DE
:10191E0008955D814C813B812A811981088108954A
:00000001FF
