:100000000C9432000C9400000C9400000C9400003E
:100010000C9400000C9400000C9400000C94000060
:100020000C9400000C9400000C9400000C94000050
:100030000C9400000C9400000C9400000C94000040
:100040000C9400000C9400000C9400000C94000030
:100050000C9400004952414E000080C00200600232
:100060005A000000F894EE27ECBBF1E0FBBFEBBFB9
:10007000E5BF8DE0A2E0BB27ED938A95E9F780E02C
:1000800098E0A0E6ED930197E9F7ECE5F0E08591C3
:100090009591009761F0A591B59105901590BF01DC
:1000A000F00105900D920197E1F7FB01F0CFEFE52C
:1000B000EDBFE8E0EEBFC0E6D2E00C945F00E0E008
:1000C000EABBEBBBE7BBE8BBE4BBE5BBE1BBE2BB28
:1000D000E3BFE2BFECBFEFBDEEBDEDBDECBDE7BDE4
:1000E000E6BDEBBDEABDE9BDE8BDE2BDE5BDE4BDF1
:1000F000E3BDE9BFE5BFE4BFEAB9E0E8E8B9E0E0A5
:10010000E0BFE6B9EDB9E6BFA0E170D05524EDE05F
:100110005E161CF495D05394FACFECE05E2EE0E02E
:100120005E161CF48DD05A94FACFF0CFFFCFAA936D
:10013000EBB3EF70AE2FE881E07FEA2BEBBB82E000
:100140008A95F1F7DA9A82E08A95F1F7DA9882E0F7
:100150008A95F1F773C0AA93A881E9DFE881E29557
:10016000E883A881E4DF81E18A95F1F767C0AA936B
:10017000E881F0E0E05AFD4FE081A981AE0FEBDFAE
:100180004980788022960895A2E065D0ACE0E3DF54
:10019000A1E061D0E0E07E2E4E2E0895AA93A881C2
:1001A000AA3011F0461448F0E0E0EA937394A72DCA
:1001B000DEDFA881AA3009F441C04394D89AA8810F
:1001C000CADFD8983BC0BA93AA931A93E981FA81FF
:1001D0003196E983FA833197E4911E2FE03019F0CC
:1001E000A12FDCDFF3CF188123960895AA93EAB3F9
:1001F000E06FEABBD29AD09AD19ADA98D898D99877
:100200006880E881E058E0936202E881E054E0937E
:100210006302A4E1B0E00E94360122D021D020D0B8
:10022000A0E285DF81E28A95F1F7A8E294DFA4E0FD
:1002300092DFA5E890DFA6E08EDFA6DF2196089585
:10024000A3DF5A92A0E093DFA4E5B0E0BCDFACE20C
:10025000B1E00C9436017FDFA3E0B0E00C943601EE
:10026000A0E365DF81E28A95F1F70895109639F0F1
:100270008AEF90E00197F1F7A8951197C9F70895D3
:00000001FF
