:100000000C942F000C9400000C9400000C94000041
:100010000C9400000C9400000C9400000C94000060
:100020000C9400000C9400000C9400000C94000050
:100030000C9400000C9400000C9400000C94000040
:100040000C9400000C9400000C9400000C94000030
:100050000C940000FFFFFF88C7F9FFFFFFFFF89433
:10006000EE27ECBBF1E0FBBFEBBFE5BF8DE0A2E00C
:10007000BB27ED938A95E9F780E098E0A0E6ED9341
:100080000197E9F7EFE5EDBFE8E0EEBFC0E6D2E0AB
:100090000C944A002E978AE0A4E0B0E0E4E5F0E09A
:1000A0000E949900EFEFEABBE4BB10E0173050F577
:1000B000E12FF0E029D0E883E12FF0E0319624D061
:1000C000E983E12FF0E032961FD0EA83E12FF0E0E0
:1000D00033961AD0EB8300E0093190F4EBEFE5BBE7
:1000E000EA8118D0E7EFE5BBE98114D0E9EEE5BB82
:1000F000E88110D0EDECE5BBEB810CD00F5FECCFCD
:100100001F5FD4CFD2CFFFCFDE011496AE0FBF1F3B
:10011000EC910895EBBBA5E0B0E00C948F00109635
:1001200039F08AEF90E00197F1F7A8951197C9F798
:100130000895AC0FBD1F05900D928A95E1F70895C3
:00000001FF
