:0A0000000C942A000C9400000C94EC
:10000A0000000C9400000C9400000C9400000C9466
:10001A0000000C9400000C9400000C9400000C9456
:10002A0000000C9400000C9400000C9400000C9446
:10003A0000000C9400000C9400000C9400000C9436
:10004A0000000C9400000C940000F894EE27ECBB1E
:10005A00F1E0FBBFEBBFE5BF8DE0A2E0BB27ED936C
:10006A008A95E9F780E098E0A0E6ED930197E9F731
:10007A00EFE5EDBFE8E0EEBFC0E6D2E00C94450044
:10008A002497E2E0E883E4E0E983E8E0EA83E0E158
:10009A00EB8310E0E0E0EABBEBBBEEE1E7BBE0E0BC
:1000AA00E8BBE4BBE5BBE1BBE2BBE3BFE2BFECBF3D
:1000BA00EFBDEEBDEDBDECBDE7BDE6BDEBBDEABDF6
:1000CA00E9BDE8BDE2BDE5BDE4BDE3BDE9BFE5BF0D
:1000DA00E4BFEAB9E0E8E8B9E0E0E0BFE6B9EDB9C3
:1000EA00E6BFE12F11D0829905C01F5F143009F4D1
:1000FA0010E006C0839906C011501F3F09F413E0AF
:10010A00E12F02D0F0CFFFCFF0E0DE01AE0FBF1F2C
:10011A00EC91E8BBA4EFB1E00C949300109639F08F
:10012A008AEF90E00197F1F7A8951197C9F708951A
:00000001FF
