:040000000C94470015
:100004000C9400000C9400000C9400000C9400006C
:100014000C9400000C9400000C9400000C9400005C
:100024000C9400000C9400000C9400000C9400004C
:100034000C9400000C9400000C9400000C9400003C
:100044000C9400000C9400000C9400000C9400002C
:100054001027E80364000A000100001000011000EA
:100064000100566F6C756D653A2000566F6C756DA6
:10007400653A202564202020000080C00900600229
:100084006600020069027E000000F894EE27ECBBD3
:10009400F1E0FBBFEBBFE5BF8DE0A2E0BB27ED9332
:1000A4008A95E9F780E098E0A0E6ED930197E9F7F7
:1000B400E0E8F0E085919591009761F0A591B59104
:1000C40005901590BF01F00105900D920197E1F79D
:1000D400FB01F0CFEFE5EDBFE8E0EEBFC0E6D2E014
:1000E4000C94A600AA931A930A931C810B810E9474
:1000F4004103AA810E94C5030E94A003AAE0B0E0C4
:100104000E94DD030C94BC01BA93AA930E94FE03DF
:100114001D810C810E944103A5E0B0E00E94DD0333
:100124000E949103A1EA0E94C503A0E00E94AA03D1
:100134003E2F0E94A003A5E0B0E00E94DD03E32F60
:100144000E9405042696089561972FEF3FEF0E94C1
:100154008C03A0E1A6D0A0E0B0E0D6DF1E2F1536B8
:1001640008F010E06CD0A0E6B2E08AD0ACEDB5E0C7
:100174000E94DD03B59907C0B59BFECF143618F471
:100184001F5F0E944C03B79907C0B79BFECF113085
:1001940018F011500E944C03F901A12FB0E0EA17A6
:1001A400FB07D1F0FE01FA93EA93EFE6F0E0FA934D
:1001B400EA93E12FFF27662777270E94F70384E05D
:1001C4000E94F40228963BD0E0E0EA93A0E02AD013
:1001D400DE0156D0212F3327A4E1B0E00E94DD03D5
:1001E400C9CFFFCFAA93EBB3EF70AE2FE881E07FC6
:1001F400EA2BEBBB82E08A95F1F7DA9A82E08A95E2
:10020400F1F7DA9882E08A95F1F776C0AA93A8818B
:10021400E9DFE881E295E883A881E4DF81E18A955A
:10022400F1F76AC0AA93E881F0E0E759FD4FE08155
:10023400A981AE0FEBDF4980788022960895A2E071
:100244000E945303ACE0E2DFA1E00E945303E0E02C
:100254007E2E4E2E0895AA93A881AA3011F046143A
:1002640048F0E0E0EA937394A72DDCDFA881AA307C
:1002740009F442C04394D89AA881C8DFD8983CC0F6
:10028400BA93AA931A93A981BA81ED91A983BA83E7
:100294001E2FE03019F0A12FDEDFF5CF1881239651
:1002A4000895AA93EAB3E06FEABBD29AD09AD19A9E
:1002B400DA98D898D9986880E881E058E0936B027E
:1002C400E881E054E0936C02A4E1B0E00E94DD0315
:1002D4000E9459030E9459030E945903A0E282DF3D
:1002E40081E28A95F1F7A8E291DFA4E08FDFA5E827
:1002F4008DDFA6E08BDFA3DF21960895BA93AA933E
:100304001A930A93AA81BB8112960E94EF03309735
:1003140059F1AA81BB8114960E94EF038F01309793
:1003240061F00230E0E01E0798F0F80131978F0188
:10033400AA81BB811496ED93FC93AA81BB8112968A
:10034400ED91FD913196FE93EE933197AC81A083AC
:10035400AA81BB810E94EF03FF232AF0ED91FD9156
:100364003196FE93EE9306C0AA81BB81EFEFFFEFB7
:10037400ED93FC931981088125960895BA93AA9365
:1003840026970E94FC0310E0AC85BD85E0E0F0E018
:10039400ED93FC93EA89FB893196EA8BFB8B3197C9
:1003A400E4912E2FE03009F415C1E12FE03039F447
:1003B400253211F411E002C00E9460030AC1E13049
:1003C400A9F4253219F40E94600302C112E040E04E
:1003D40000E02D3211F401E0FCC02B3211F44BE2A9
:1003E400F8C0203211F440E2F4C002C0E23039F423
:1003F40050E013E0203311F40068EBC003C0E33095
:1004040009F0E7C0203310F02A3308F007C0AAE04F
:100414005A9F502DE22FE0535E0FDBC0E22FE336EC
:1004240049F40E946703E889F989A481AA930E9488
:100434006D03CEC0E33741F40E9467030E94730347
:100444000E9428031E2F0AC0E03761F40E9467034C
:100454000E9473030E9434031E2F086002600F770A
:1004640030E034C0E43611F0E93611F4046002C01F
:10047400E53731F4E4E5F0E0EE83FF8315E00CC0EA
:10048400E83511F4086003C0E83709F0A1C0EEE5CF
:10049400F0E0EE83FF8314E002FF14C00E946703C0
:1004A4000E947D03AB85AA233AF4EA85FB850E946A
:1004B400EB03EA87FB874DE2403011F01F5F01C078
:1004C4000B7F04C00E9467030E947D0300FD11C0DE
:1004D400151778F407FF08C002FF04C00B7F242F10
:1004E400115001C020E301C020E20E94600351507A
:1004F400EFCF312F01FF17C03030A1F003FF06C04A
:10050400EE81FF812591EE83FF8305C0AE81BF811B
:100514002D91AE83BF830E946003503009F0515087
:100524003150EACF4BC020E3EE81FF810E94F303F8
:10053400E887F987EE81FF813296EE83FF83E885B1
:10054400F985AA85BB85AE17BF0750F02F5FA88534
:10055400B985EA85FB85EA1BFB0BEA87FB87EFCFAE
:100564002A3328F003FF02C0295F01C0295D04FD7E
:100574001AC0213320F4A885B985119709F409C05C
:10058400531710F000FF01C013C020E207FF0BC097
:1005940020E3006102FF07C00B7F4A930E946D03B2
:1005A400503009F051500E946003503009F051500E
:1005B4003150A885B985129708F0B5CF00FF08C05F
:1005C400503031F05150E0E2EA930E946D03F8CFCD
:1005D40010E0E0CEAC85BD850E94EF030E940304C9
:1005E40064960895FF92F82E26970E94FE030E94B7
:1005F4008503309719F4EFEFFFEF23C0DE01169661
:100604000E94E7038D010E948503EE83FF83E0E0EF
:10061400E887E987DE011A960E94E7030E94EF0348
:10062400FA93EA931A930A93E0E8F1E0FA93EA93CF
:10063400DE011A96A3DE9F01AE81BF81E0E0EC9358
:10064400F9010E9405042A96FF900895BA93AA938B
:10065400A991B991EE27FF276D91662311F0319688
:10066400FBCF0895BA93AA93AA27BB27E991F991DE
:100674000590002011F01196FBCFFD0108950E9412
:100684009103A0EA0E94C503A12F0E94C503A02FD5
:100694000C94C503E0E0F0E0FA93EA93A12F0C94E4
:1006A40074000E940801A3E0B0E00C94DD03A0E311
:1006B4000E94F40081E28A95F1F708952A93AD85AA
:1006C400BE85EF85F88909950895E889F9893497F5
:1006D400E88BF98B0895AD85BE85EF85F88909957A
:1006E4000895A889B98914960E94EF03EE83FF83C5
:1006F400AE81BF810895A889B98914960E94EF0339
:10070400EA87FB870895DE011C960E94E7030E9496
:10071400EF030895A898A998A09AA19815C0A19844
:10072400A098EE270000999B0895989B089504D003
:10073400A19A02D0A09AE1E062E007C0A19AA09A2F
:1007440003D0A098F9DFA19863E06A95F1F70895C2
:1007540078E0A098F1DF989BFECFEEDF889499991A
:100764000894A09AF1DFEE1F7A9599F77A2F7723F0
:1007740011F4A19801C0A19ADFDFA098E5DFA09A47
:10078400DBDFA198D9CF78E0AA0F10F4A19801C0BB
:10079400A19ADADFA098D0DF989BFECFCDDFA09A94
:1007A4007A9591F7A198C8DFA098CEDFE1E09999F6
:1007B400EE27A09AC1CF109639F08AEF90E0019706
:1007C400F1F7A8951197C9F708950024AF0DB01D4E
:1007D4000895F195E195F0400895ED91FC911197FC
:1007E40008950590F491E02D08957A936A93FA930D
:1007F400EA9308955A934A933A932A931A930A933D
:1008040008955D814C813B812A8119810881089575
:00000001FF
