:080000000C9453000C94000065
:100008000C9400000C9400000C9400000C94000068
:100018000C9400000C9400000C9400000C94000058
:100028000C9400000C9400000C9400000C94000048
:100038000C9400000C9400000C9400000C94000038
:100048000C9400000C9400000C9400004865792C76
:10005800206D79206E616D6520697320626172641C
:1000680069612C20616E64206920616D2032342022
:100078007965617273206F6C642E20686170707985
:1000880020746F2073656520796F752121202020E9
:100098002020000080C0020060029C000000F8944C
:1000A800EE27ECBBF1E0FBBFEBBFE5BF8DE0A2E0C4
:1000B800BB27ED938A95E9F780E098E0A0E6ED93F9
:1000C8000197E9F7EEE9F0E085919591009761F0E5
:1000D800A591B59105901590BF01F00105900D927D
:1000E8000197E1F7FB01F0CFEFE5EDBFE8E0EEBFE8
:1000F800C0E6D2E00C948000EF97699787E4A1E10D
:10010800B0E0E4E5F0E00E947D0106E410E0A0E143
:100118008CD020E030E02017310744F540E050E073
:100128004031E0E05E07ACF4FA01DE01EA0FFB1FA4
:10013800BF01DA01A20FB31FF8010E946F01DE01AF
:100148005196AE0FBF1FEC91DB01EC934F5F5F4FF1
:10015800E7CFE0E0EA93A0E02BD0DE0155D0A4EF92
:10016800B1E00E944E012F5F3F4FD5CFD2CFFFCFD6
:10017800AA93EBB3EF70AE2FE881E07FEA2BEBBBDD
:1001880082E08A95F1F7DA9A82E08A95F1F7DA98AF
:1001980082E08A95F1F771C0AA93A881E9DFE88126
:1001A800E295E883A881E4DF81E18A95F1F765C0EB
:1001B800AA93E881F0E0E05AFD4FE081A981AE0FF3
:1001C800EBDF5980488022960895A2E058D0ACE031
:1001D800E3DFA1E054D0E0E04E2E5E2E0895AA930E
:1001E800A881AA3011F0571448F0E0E0EA9343944C
:1001F800A42DDEDFA881AA3009F43FC05394D89A11
:10020800A881CADFD89839C0BA93AA931A93A9814A
:10021800BA81ED91A983BA831E2FE03019F0A12F7E
:10022800DEDFF5CF188123960895AA93EAB3E06F2D
:10023800EABBD29AD09AD19ADA98D898D998788085
:10024800E881E058E0936202E881E054E0936302B9
:10025800A4E1B0E00E944E0117D016D015D0A0E25C
:1002680087DF81E28A95F1F7A8E296DFA4E094DFC0
:10027800A5E892DFA6E090DFA8DF219608958CDF3D
:10028800A3E0B0E00C944E01A0E372DF81E28A950E
:10029800F1F70895109639F08AEF90E00197F1F799
:1002A800A8951197C9F70895F195E195F04008953B
:1002B8000024112490E1AA0FBB1F001C111C0E1A68
:1002C8001F0A18F40E0E1F1E01C0A1609A9599F717
:1002D800FD01D0010895E894B7FF04C0A095B0953A
:1002E80011966894F7FDE0DFE3DFFD010EF4DCDF33
:1002F8000895AC0FBD1F05900D928A95E1F70895FA
:00000001FF
