:100000000C943E000C9400000C9400000C94000032
:100010000C9400000C9400000C9400000C94000060
:100020000C9400000C9400000C9400000C94000050
:100030000C9400000C9400000C9400000C94000040
:100040000C9400000C9400000C9400000C94000030
:100050000C94000025342E3266002D4E414E0000D7
:1000600080C001002D4E414E00494E460000020066
:10007000740260000100780262000000F894EE272C
:10008000ECBBF1E0FBBFEBBFE5BF8DE0A2E0BB271F
:10009000ED938A95E9F780E098E0A0E6ED9301976B
:1000A000E9F7EEE6F0E085919591009761F0A59172
:1000B000B59105901590BF01F00105900D92019743
:1000C000E1F7FB01F0CFEFE5EDBFE8E0EEBFC0E602
:1000D000D2E00C947A00AA93E881E06CE7B983E05F
:1000E0008A95F1F7369A349BFECF349AE4B1F5B194
:1000F0000C94CF04E0E0EABBEBBBE7BBE8BBE4BB9E
:10010000E5BBE0E8E1BBE0E0E2BBE3BFE2BFECBFA0
:10011000EFBDEEBDEDBDECBDE7BDE6BDEBBDEABD9F
:10012000E9BDE8BDE2BDE5BDE4BDE3BDE9BFE5BFB6
:10013000E4BFEAB9E0E8E8B9E0ECE7B9E3E8E6B93A
:10014000E0E0E0BFEDB9E6BFA0E10E94A404A3E0B7
:10015000C2DF2F01662777270E946607DF01CB01E8
:10016000E0E0F0E060E870E40E943E08E093700296
:10017000F09371026093720270937302E0E6F2E012
:10018000FA93EA93E4E5F0E0FA93EA93E0917002DF
:10019000F091710260917202709173020E942709BE
:1001A00084E00E9411042896E0E0EA93A0E00E9417
:1001B0006504A0E6B2E00E949304A4E6B0E00E94C9
:1001C000F0060E94E00508F0979A0E94E00508F406
:1001D0009798BDCFFFCFBA93AA931A930A93AA8197
:1001E000BB8112960E940E09309729F1AA81BB812A
:1001F00014960E940E098F01309761F00230E0E002
:100200001E0780F0F80131978F01AA81BB811496F7
:10021000ED93FC93AA81BB8112960E94EF05319762
:10022000AC81A083AA81BB810E940E09FF2312F03A
:100230000E94EF0506C0AA81BB81EFEFFFEFED93AF
:10024000FC9319810881259608950E94F505E0E840
:10025000EA83EFE3EB830E944409EE85FF85EF3FDD
:10026000AFEFFA0749F4E885F985FA93EA93AAE52E
:10027000B0E00E94D104B7C0EF3FAFE7FA0749F4FE
:10028000E885F985FA93EA93ABE5B0E00E94D104E2
:10029000AAC0AB85A73010F0E6E0EB871B85E12F05
:1002A0001150E03019F00E94FC05F9CFEC85FD8576
:1002B0006E857F850E943E0921F430E00E94FC0596
:1002C0002DC03B850E940B0609F008F40BC00E946C
:1002D000FC050E940B0628F00E9416060E941B06D1
:1002E000F8CF0DC00E940B0640F40E9416060E9433
:1002F00027060E942E063150F5CF0E94FC05EC85A2
:10030000FD856E857F850E9433060E942E060E9421
:100310000B0620F00E9416060E941B0610E0EB85DB
:10032000E117A8F1AC81BD818E819F810E943A06C0
:100330000E943306DF01CB010E942805EC83FD8378
:100340006E837F830E9416060E943E080E942D073E
:100350000E2F0E9441060E944806FF276627772736
:100360000E946607AC81BD818E819F810E94F0074B
:100370000E9416060E944D060E942E06E12F1F5F66
:10038000E03069F60E944106EEE2EC93C8CF0E948D
:1003900052063197AA85A08330302CF43195A88578
:1003A000B985EDE203C0A885B985EBE2EC930E9424
:1003B00052060E9452063197BF01A32FEAE00E9425
:1003C000C808E05DDB01EC930E9452063197BF0143
:1003D000A32FEAE00E94F208E05DDB01EC93A88520
:1003E000B985E0E0EC930E944B0960960895BA93BA
:1003F000AA93EF9761970E94420910E0FE01E85A24
:10040000FF4F0190F081E02DE887F987FE01EA5A5D
:10041000FF4F0190F081E02DEE83FF83AE81BF811D
:10042000E0E0F0E0ED93FC93DE01A45ABF4F0E94A0
:10043000EF053197E4912E2FE03009F4E9C1E12F67
:10044000E03039F4253211F411E002C00E94580660
:10045000DEC1E130C1F4253219F40E945806D6C13C
:1004600012E0E0E0ED8B00E02D3211F401E0CFC1AD
:100470002B3219F4EBE2ED8BCAC1203219F4E0E221
:10048000ED8BC5C102C0E23039F450E013E02033F7
:1004900011F40068BCC102C0E33091F4203310F0C5
:1004A0002A3308F007C0AAE05A9F502DE22FE053EC
:1004B0005E0FADC140E02E3211F414E0A8C10FC0B0
:1004C000E43099F4203310F02A3308F008C00062B9
:1004D000AAE04A9F402DE22FE0534E0F98C12C36E0
:1004E00019F4026015E093C103C0E53009F08FC133
:1004F000E22FE33659F40E945F060E9466060E94CE
:100500005F06A481AA930E946D0680C1E53411F0B4
:10051000E53609F403C0E63609F048C0FE017696D8
:10052000EE87FF870E9473060E9412090E947A06D6
:100530000E947F06AD85AA2332F0AD89AB3259F017
:10054000A03281F017C00E9481060E94FA060E9424
:100550007A06EDE2ED8B07FF05C0ED89EA930E9474
:100560006D0608C0EE85FF853196EE87FF873197CF
:10057000AD89A08305FF46E0263651F40E9481062E
:100580000E9427094A93AB89BC890E943F0509C094
:100590000E9481060E9427094A932A93AC89BD894B
:1005A00054DEFE0176960E9486061EC0E33739F4BB
:1005B0000E947F060E948E060E9486060EC0E037CB
:1005C000C1F40E947F060E948E06EE87FF87AE85EB
:1005D000BF850E94EA041E2F08600F77403011F09B
:1005E000411708F001C0142F40E0E0E0EC8B30E050
:1005F0006DC0E43611F0E93611F4046002C0E5374D
:10060000A1F4EAE0EC8B01FF08C0E0E0FAEC6AE953
:100610007BE30E9493061AE022C0E0E1F7E260E08B
:1006200070E00E94930615E01AC0E83511F40860E6
:1006300003C0E83709F0EAC0E0E1EC8B01FF08C035
:10064000E0E0F0E060E070E10E94930618E007C08F
:10065000E0E0F0E160E070E00E94930614E04030DA
:1006600011F00F7701C041E001FF08C00E947F0632
:100670000E94730614960E9412090FC002FF07C061
:100680000E947F060E948E060E94B50806C00E9446
:100690007F060E948E0666277727EA87FB876C878E
:1006A0007D8702FF12C0AD85AA2342F40E94810615
:1006B0000E94A7080E947A06EDE2ED8BED89E030FA
:1006C00019F01F5F4F5F01C00B7F342F00FD14C076
:1006D000151710F4351708F00FC007FF08C002FF08
:1006E00004C00B7F2D89115001C020E301C020E21E
:1006F0000E9458065150ECCF141790F4006102FF8D
:1007000006C00E94980609F0515011504150E0E394
:10071000EA930E946D06503009F051504150ECCFE1
:10072000312FEC89E030B9F43030A1F003FF06C07E
:10073000EE85FF852591EE87FF8705C0AE85BF85D5
:100740002D91AE87BF870E945806503009F0515056
:100750003150EACF51C00E94AA060E94CD082E2F28
:100760002A3030F003FF02C0295C01C0295A01C0C1
:10077000205D04FD21C0213360F4A889B9898A89EC
:100780009B89A130E0E0BE07E0E08E07E0E09E0735
:1007900009F40BC0431740F4531710F000FF01C0D9
:1007A00010C020E207FF08C020E3006102FF04C080
:1007B0000E94980609F051500E945806503009F0E6
:1007C000515031500E94AA060E94FE080E947A06EB
:1007D000EC89A889B9898A899B89FF2766277727A9
:1007E0000E94CD080E949306E889F9896A897B896D
:1007F0000E943E0909F0AFCF00FF08C0503031F031
:100800005150E0E2EA930E946D06F8CF10E00CCE62
:10081000AE81BF810E940E090E944909EF966F9632
:100820000895FF92F82E26970E9444090E94B3066D
:10083000309719F4EFEFFFEF23C0DE0116960E9408
:10084000A3088D010E94B306EE83FF83E0E0E887F2
:10085000E987DE011A960E94A3080E940E09FA9306
:10086000EA931A930A93EBEEF0E0FA93EA93DE012F
:100870001A96BDDD9F01AE81BF81E0E0EC93F901E6
:100880000E944B092A96FF900895AA93EBB3EF704C
:10089000AE2FE881E07FEA2BEBBB82E08A95F1F78F
:1008A000DA9A82E08A95F1F7DA9882E08A95F1F790
:1008B00076C0AA93A881E9DFE881E295E883A88160
:1008C000E4DF81E18A95F1F76AC0AA93E881F0E05C
:1008D000EC58FD4FE081A981AE0FEBDF7980688095
:1008E00022960895A2E00E94BA06ACE0E2DFA1E001
:1008F0000E94BA06E0E06E2E7E2E0895AA93A8818B
:10090000AA3011F0791448F0E0E0EA936394A62D40
:10091000DCDFA881AA3009F442C07394D89AA88178
:10092000C8DFD8983CC0BA93AA931A93A981BA8118
:10093000ED91A983BA831E2FE03019F0A12FDEDFDD
:10094000F5CF188123960895AA93EAB3E06FEABB26
:10095000D29AD09AD19ADA98D898D9989880E88182
:10096000E058E0937602E881E054E0937702A4E156
:10097000B0E00E94F0060E94C0060E94C0060E94DD
:10098000C006A0E282DF81E28A95F1F7A8E291DF5A
:10099000A4E08FDFA5E88DDFA6E08BDFA3DF219643
:1009A0000895BA93AA93E991F991A991B991CD01CA
:1009B00005900D920020E1F7FC010895BA93AA93E7
:1009C000A991B991EE27FF276D91662311F0319619
:1009D000FBCF0895BA93AA93AA27BB27E991F9916F
:1009E0000590002011F01196FBCFFD0108950E94A3
:1009F0002C097B816A81F981E88177FB770F67FD9C
:100A00007160972F9E5781F078F0983190F4AA2763
:100A1000BB27882708948795B795A7959A95D1F70E
:100A2000EA23FB23682305C0E8947727EE27FF27F6
:100A300066276F77769508F4606877F9A991B99180
:100A400089919991EA17FB076807790797FB089541
:100A50000E942C090E941D090E94F7040E9422098D
:100A600019F40E94180909C0E6F70E941809A0E0CD
:100A7000B0E080E89FE30E94990724960895B5D0DE
:100A8000E0E0EA83EFE3EB831A930A93EB85FC85BE
:100A9000EF3FAFEFFA0731F47AD1A4E6B0E00E945D
:100AA000D1048AC0EF3FAFE7FA0731F470D1A5E671
:100AB000B0E00E94D10480C0AC85AA2352F4E9853D
:100AC000FA856B857C850E94FA0666D16AD1EDE2D3
:100AD000EC93A885A73010F0E6E0E8871885E12FB1
:100AE0001150E03021F064D1C5D067D1F8CF6AD180
:100AF0000E94A00751D110E0E0E0F0E060E87FE361
:100B00005CD160D10E94830868F052D1A0D055D149
:100B10001F5F173230F03BD1A9E6B0E00E94D1044C
:100B20004BC0EFCF103021F43CD1E0E3EC9320C078
:100B3000E12F1150E030E1F03BD19CD094D0DF01A7
:100B4000CB010E94280539D13DD10E943E080E9468
:100B50002D070E2F26D19CD0F0E02AD10E94B50897
:100B60000E9466070E94F00736D197D015D1E0CFDA
:100B7000E885E030E9F015D1EEE2EC93E885E1504C
:100B8000E887EF5FA9F027D162D006D1E985FA8521
:100B90006B857C850E942D070E2F03D179D0F0E064
:100BA0001AD10E94B5080E94660777D0F5D0E6CF2B
:100BB000AE81BF81E0E0EC93198108812D96089504
:100BC000A0917002B09171028091720290917302B3
:100BD000E0E0F0E068EE71E40E9483080895ED9192
:100BE000FD913196FE93EE930895BA93AA932497BC
:100BF000E0E0E883E9830895AC81BD818E819F8127
:100C0000E0E0F0E060E271E40E94F007EC83FD8335
:100C10006E837F830895EC81FD816E817F81AC8539
:100C2000BD858E859F850E9483080895AC85BD850E
:100C30008E859F850895EDECFCEC6CEC7DE30E94C5
:100C4000F007EC87FD876E877F873F5F0895E0E0C0
:100C5000F0E060E271E40E94F0070895EC87FD8700
:100C60006E877F870895A0E0B0E080E09FE30E9458
:100C7000A0070895EDECFCEC6CEC7DE30E94F0071E
:100C80000895A885B9851196A887B9871197089501
:100C9000E02FE05DEC93E02F08950E9431090E945F
:100CA00099070895E885F9853196E887F9870895C9
:100CB0002A93AF81B885E985FA8509950895FE01E3
:100CC000E65AFF4F0190F081E02D08953497DE0140
:100CD000A65ABF4FED93FC930895AF81B885E9857F
:100CE000FA8509950895DE01A65ABF4F0D90BC9173
:100CF000A02D0895EA87FB876C877D870895DFDF45
:100D0000E5CFEA85FB856C857D850895EE87FF87B5
:100D1000AE85BF850E94DE041E2F0895E4DF149681
:100D20000E940E090895E88BF98B6A8B7B8B0895DE
:100D30000B7FED89EA93DE01A95ABF4F0D90BC915C
:100D4000A02DFE01E75AFF4F0190F081E02D09959B
:100D500050300895E889F9896A897B89AA85BB851D
:100D60008C859D850895DE011C960E94A3080E9433
:100D70000E0908950E945904A3E0B0E00C94F00617
:100D8000A0E30E94450481E28A95F1F70895EE817F
:100D9000FF81FA93EA930895E987FA876B877C8746
:100DA0000895AE81BF811196AE83BF8311970895D8
:100DB000AA81BB818C819D810895EA83FB836C832A
:100DC0007D830895EA81FB816C817D81A985BA8547
:100DD0008B859C850895A985BA858B859C8508950A
:100DE000109639F08AEF90E00197F1F7A8951197E6
:100DF000C9F7089530976040704009F07058089521
:100E0000552342F4503811F4E0FF04C03196691FB5
:100E1000791F6BF050E8572711F45F93CFC05F3F05
:100E200031F0660F000C57956795752F08955F9305
:100E300000200AF0CFC0C8C050E8192E1522880F34
:100E4000991F9527550F879550E8072E0522660FA5
:100E5000771F7527550F67950895689401C0E8942A
:100E60005F93F2DF703818F07F3F08F4A7C056E1B7
:100E7000571BAAF4519558300EF4593030F0EFEF6B
:100E8000FFEF6FEF7FE777F91AC077275523B9F0A7
:100E9000EE0FFF1F661F771F5A95D1F710C07727F7
:100EA000583028F0EF2FF62F672F5850F9CF5523E1
:100EB00031F076956795F795E7955A95D1F700202B
:100EC0000AF445D15F910895689401C0E894309781
:100ED00060407040B1F0002426F0772312F40094B3
:100EE00036D1172E7EE1112032F07A95EE0FFF1FDA
:100EF000661F111CF9CFEF2FF62F612D5F938ADF4C
:100F00005F9108954F93AF01FD01DA01AB01BC0180
:100F1000CA01402D012C142E4F910895EA0FFB1F9A
:100F2000681F0895E095F0956095EF5FFF4F6F4F54
:100F300008955F9381DF903871F150E8152604C061
:100F40005F937ADF903839F1703821F1572F591BB0
:100F50002BF112F4D7DFFACF583118F0AA27BB27AC
:100F60008827583028F0AB2FB82F88275850F9CF52
:100F7000552329F08695B795A7955A95D9F7502D01
:100F8000512572F0CBDF38F46795F795E7957395A7
:100F900013F420C0B7DF3EDF5F910895D8F7FBCF91
:100FA000EA1BFB0B680B51F010F40094BBDF6623C7
:100FB00092F3EE0FFF1F661F7A95CBF7EE27FF2700
:100FC000662777275F910895EFEFFFEF6FE77FEFD9
:100FD0005F910895EFEFFFEF6FE77FE75F9108956F
:100FE0005F932ADF703851F3903841F3012408945D
:100FF000791F23F41CF300203AF3ECCF0F921F93D8
:101000002F933F934F93112722279927689FA00181
:101010008F9F302D410D591F6B9F300D411D591F62
:101020008E9F27D0BF9F25D06A9F23D0BE9F1DD003
:10103000AF9F1BD0AE9F110D291F391F491F591F8C
:10104000E32FF42F652F522F4F913F912F911F9136
:101050000F9066232AF0550FEE1FFF1F661F02C078
:1010600073954BF2CDDE5F910895100D211D391F50
:1010700002C0200D311D491F591F08955F93DCDE0A
:10108000703821F411200AF49FCFA4CF903809F4CE
:1010900095CF01240894970B1BF4D4F30020F3CFD1
:1010A000792F1F932F933F934F93112411272227BA
:1010B00033274427552790E2AE17BF07860741071D
:1010C00030F0AE1BBF0B860B410B089401C0889417
:1010D000551F221F331F111CAA1FBB1F881F441F2F
:1010E0009A9551F7F901612D4F913F912F911F91E1
:1010F000662332F0550FEE1FFF1F661F7A9543F2ED
:101100007FDE5F91089599239AF0772342F0971735
:1011100048F029F4AE17BF07860720F031F0989405
:10112000889408959894089408951894889408953C
:101130007723C2F7971798F3A9F7EA17FB07680711
:1011400088F399F3ECCF0024AF0DB01D0895F0950E
:1011500060957095E195FF4F6F4F7F4F0895FE2F7B
:10116000FF0FFF0B6F2F7F2F08956F2F660F660BFA
:10117000762F0895002498E0AA0F001C0E1A10F490
:101180000E0E01C0A1609A95B9F7EA2FA02D08951F
:1011900039D0F0DF0EF4E19508953F934F935F93BC
:1011A000002411244427552730E2AA0FBB1F881FB3
:1011B000991F001C111C441F551F0E1A1F0A460BB5
:1011C000570B28F40E0E1F1E461F571F01C0A160AB
:1011D0003A9559F7FD01BC01D001CA015F914F91C9
:1011E0003F910895E894A7FF02C0A1956894E7FD98
:1011F000E195C0DFEA2F0EF4E1950895CEDFFD0101
:10120000BC010895E894E7FF02C0E1956894A7FF48
:1012100004C0A19500F8039400FA0895ED91FC91A3
:1012200011970895ED91FD916D917C91139708951B
:10123000E881F9816A817B810895A881B9818A81D9
:101240009B810895E883F9836A837B8308957A9369
:101250006A93FA93EA9308959A938A93BA93AA9316
:101260000895182E862F612D192E972F712D1B2E64
:10127000BF2FF12D1A2EAE2FE12D0895309760402B
:10128000704008955A934A933A932A931A930A9373
:1012900008955D814C813B812A81198108810895DF
:00000001FF
