:020000000C945E
:100002004B000C9478000C947D000C9482000C94AC
:1000120000000C9400000C9400000C9400000C945E
:1000220000000C9400000C9400000C9400000C944E
:1000320000000C9400000C9400000C9400000C943E
:1000420000000C9400000C9400000C9400000C942E
:1000520000001027E80364000A00010000100001FC
:1000620010000100494E5430303030002020202052
:1000720020202000494E543030303100494E543057
:100082003030320025303273000080C0020070022E
:100092008C000000F894EE27ECBBF1E0FBBFEBBF55
:1000A200E5BF8DE0A2E0BB27ED938A95E9F780E0FA
:1000B20098E0A0E6ED930197E9F7EEE8F0E085918C
:1000C2009591009761F0A591B59105901590BF01AA
:1000D200F00105900D920197E1F7FB01F0CFEFE5FA
:1000E200EDBFE8E0EEBFC0E6D2E00C94A3000E94B0
:1000F2005903A6E6B0E009C00E945903A6E7B0E0A2
:1001020004C00E945903AEE7B0E00E940003A0EDD4
:10011200B7E00E94A403E0E0EA93A1E00E94C302D8
:10012200AEE6B0E00E940003E991EFBFF991E991D8
:10013200B991A9919991899179916991F9901990BF
:1001420009901895E0E0EABBEBBBE7BBE8BBE4BB78
:10015200E5BBE1BBE2BBE3BFE2BFECBFEFBDEEBD7F
:10016200EDBDECBDE7BDE6BDEBBDEABDE9BDE8BD59
:10017200E2BDE5BDE4BDE3BDE9BFEBB7E06EEBBFB9
:10018200EAE0E5BFE0E0E4BFE0EEEABFE0E0EAB9C2
:10019200E0E8E8B9E0E0E0BFE6B9EDB9E6BFA0E12A
:1001A2000E94130378945524E5E15E1608F5E0E613
:1001B200F2E0FA93EA93E6E8F0E0FA93EA93E52DA7
:1001C200FF27662777270E94BE0384E00E946F0202
:1001D2002896E7E0EA93A0E00E94C302A0E6B2E01C
:1001E2000E94F102A4E6B0E00E94A4035394DCCF83
:1001F200DACFFFCFBA93AA931A930A93AA81BB814B
:1002020012960E94B603309759F1AA81BB811496C7
:100212000E94B6038F01309761F00230E0E01E07C2
:1002220098F0F80131978F01AA81BB811496ED9362
:10023200FC93AA81BB811296ED91FD913196FE93BA
:10024200EE933197AC81A083AA81BB810E94B60351
:10025200FF232AF0ED91FD913196FE93EE9306C0B5
:10026200AA81BB81EFEFFFEFED93FC931981088127
:1002720025960895BA93AA9326970E94C30310E085
:10028200AC85BD85E0E0F0E0ED93FC93EA89FB8963
:100292003196EA8BFB8B3197E4912E2FE03009F4F3
:1002A20015C1E12FE03039F4253211F411E002C01A
:1002B2000E946B030AC1E130A9F4253219F40E94AD
:1002C2006B0302C112E040E000E02D3211F401E0C4
:1002D200FCC02B3211F44BE2F8C0203211F440E2A0
:1002E200F4C002C0E23039F450E013E0203311F4DC
:1002F2000068EBC003C0E33009F0E7C0203310F020
:100302002A3308F007C0AAE05A9F502DE22FE0538B
:100312005E0FDBC0E22FE33649F40E947203E889E4
:10032200F989A481AA930E947803CEC0E33741F4ED
:100332000E9472030E947E030E9440031E2F0AC085
:10034200E03761F40E9472030E947E030E944C0314
:100352001E2F086002600F7730E034C0E43611F0DF
:10036200E93611F4046002C0E53731F4E4E5F0E067
:10037200EE83FF8315E00CC0E83511F4086003C07A
:10038200E83709F0A1C0EEE5F0E0EE83FF8314E068
:1003920002FF14C00E9472030E948803AB85AA2345
:1003A2003AF4EA85FB850E94B203EA87FB874DE2B5
:1003B200403011F01F5F01C00B7F04C00E94720326
:1003C2000E94880300FD11C0151778F407FF08C0CA
:1003D20002FF04C00B7F242F115001C020E301C093
:1003E20020E20E946B035150EFCF312F01FF17C063
:1003F2003030A1F003FF06C0EE81FF812591EE832C
:10040200FF8305C0AE81BF812D91AE83BF830E9461
:100412006B03503009F051503150EACF4BC020E30A
:10042200EE81FF810E94BA03E887F987EE81FF819E
:100432003296EE83FF83E885F985AA85BB85AE17E0
:10044200BF0750F02F5FA885B985EA85FB85EA1BB7
:10045200FB0BEA87FB87EFCF2A3328F003FF02C0AA
:10046200295F01C0295D04FD1AC0213320F4A8854B
:10047200B985119709F409C0531710F000FF01C0A4
:1004820013C020E207FF0BC020E3006102FF07C098
:100492000B7F4A930E947803503009F051500E941A
:1004A2006B03503009F051503150A885B98512972D
:1004B20008F0B5CF00FF08C0503031F05150E0E2F3
:1004C200EA930E947803F8CF10E0E0CEAC85BD85B8
:1004D2000E94B6030E94CA0364960895FF92F82E02
:1004E20026970E94C5030E949003309719F4EFEFFC
:1004F200FFEF23C0DE0116960E94AE038D010E941B
:100502009003EE83FF83E0E0E887E987DE011A9635
:100512000E94AE030E94B603FA93EA931A930A93D7
:10052200EBEFF0E0FA93EA93DE011A96A3DE9F0165
:10053200AE81BF81E0E0EC93F9010E94CC032A96E0
:10054200FF900895AA93EBB3EF70AE2FE881E07F9E
:10055200EA2BEBBB82E08A95F1F7DA9A82E08A9580
:10056200F1F7DA9882E08A95F1F787C0AA93A88119
:10057200E9DFE881E295E883A881E4DF81E18A95F9
:10058200F1F77BC0AA93E881F0E0E059FD4FE081EA
:10059200A981AE0FEBDF4980788022960895A2E010
:1005A2000E949703ACE0E2DFA1E00E949703E0E043
:1005B2007E2E4E2E0895AA93A881AA3011F04614D9
:1005C20048F0E0E0EA937394A72DDCDFA881AA301B
:1005D20009F453C04394D89AA881C8DFD8984DC073
:1005E200BA93AA931A93A981BA81ED91A983BA8386
:1005F2001E2FE03019F0A12FDEDFF5CF10C0BA9325
:10060200AA931A93E981FA813196E983FA833197A1
:10061200E4911E2FE03019F0A12FCDDFF3CF188126
:1006220023960895AA93EAB3E06FEABBD29AD09ACE
:10063200D19ADA98D898D9986880E881E058E093FE
:100642007202E881E054E0937302A4E1B0E00E94F8
:10065200A4030E949D030E949D030E949D03A0E2A9
:1006620071DF81E28A95F1F7A8E280DFA4E07EDF04
:10067200A5E87CDFA6E07ADF92DF21960895BA939F
:10068200AA93A991B991EE27FF276D91662311F0E4
:100692003196FBCF0895BA93AA93AA27BB27E99173
:1006A200F9910590002011F01196FBCFFD010895FC
:1006B2000A921A92FA926A937A938A939A93AA93D3
:1006C200BA93EA93FA93EFB7EA93E0E0EA93A1E0F0
:1006D2000C94C3022A93AD85BE85EF85F8890995EE
:1006E2000895E889F9893497E88BF98B0895AD85E7
:1006F200BE85EF85F88909950895A889B989149668
:100702000E94B603EE83FF83AE81BF810895A8895C
:10071200B98914960E94B603EA87FB870895DE0121
:100722001C960E94AE030E94B60308950E94B7026F
:10073200A3E0B0E00C94A403A0E30E94A30281E230
:100742008A95F1F70895109639F08AEF90E00197B3
:10075200F1F7A8951197C9F708950024AF0DB01DC0
:100762000895F195E195F0400895ED91FC9111976E
:1007720008950590F491E02D08957A936A93FA937F
:10078200EA9308955A934A933A932A931A930A93AF
:1007920008955D814C813B812A81198108810895E8
:00000001FF
