:100000000C942A000C9400000C9400000C94000046
:100010000C9400000C9400000C9400000C94000060
:100020000C9400000C9400000C9400000C94000050
:100030000C9400000C9400000C9400000C94000040
:100040000C9400000C9400000C9400000C94000030
:100050000C940000F894EE27ECBBF1E0FBBFEBBF83
:10006000E5BF8DE0A2E0BB27ED938A95E9F780E03C
:1000700098E0A0E6ED930197E9F7EFE5EDBFE8E042
:10008000EEBFC0E6D2E00C945400AA93E881E06C85
:10009000E7B983E08A95F1F7369A349BFECF349A1C
:1000A000E4B1F5B121960895E0E0EABBEBBBE7BB14
:1000B000E8BBEFEFE4BBE0E0E5BBE3E0E1BBE0E0A1
:1000C000E2BBE3BFE2BFECBFEFBDEEBDEDBDECBDFB
:1000D000E7BDE6BDEBBDEABDE9BDE8BDE2BDE5BDFE
:1000E000E4BDE3BDE9BFE5BFE4BFEAB9E0E8E8B9D4
:1000F000E0ECE7B9E3E8E6B9E0E0E0BFEDB9E6BF80
:10010000A3E0C3DFE4B1E5BBE5B1E2BBF9CFFFCFCC
:00000001FF
