:060000000C942F000C948B
:1000060000000C9400000C9400000C9400000C946A
:1000160000000C9400000C9400000C9400000C945A
:1000260000000C9400000C9400000C9400000C944A
:1000360000000C9400000C9400000C9400000C943A
:1000460000000C9400000C9400000C9400000000CA
:100056000200040054000000F894EE27ECBBF1E027
:10006600FBBFEBBFE5BF8DE0A2E0BB27ED938A9512
:10007600E9F780E098E0A0E6ED930197E9F7E6E579
:10008600F0E085919591009761F0A591B591059065
:100096001590BF01F00105900D920197E1F7FB0164
:1000A600F0CFEFE5EDBFE8E0EEBFC0E6D2E00C949E
:1000B6005C00EFEFEABBE7BB66247724E4E6F0E0FA
:1000C6006E167F06CCF4D301EAE0F0E00E94A200AF
:1000D6005E2ED301EAE0F0E00E94A7004E2EE52D49
:1000E600E295E07FE429EBBBA4E6B0E00E94810044
:1000F600F30131963F01E2CFDFCFFFCF109639F003
:100106008AEF90E00197F1F7A8951197C9F708953E
:10011600F195E195F04008950024112490E1AA0F8D
:10012600BB1F001C111C0E1A1F0A18F40E0E1F1EF0
:1001360001C0A1609A9599F7FD01D001089512D0EA
:10014600EBDF0EF4E5DF0895E894B7FF04C0A09551
:10015600B09511966894F7FDDBDFDEDFFD010EF446
:10016600D7DF0895E894F7FF02C0D2DF6894B7FF9F
:1001760006C0A095B095119600F8039400FA08956C
:00000001FF
