:0A0000000C947E000C9400000C9498
:10000A0000000C9400000C9400000C9400000C9466
:10001A0000000C9400000C9400000C9400000C9456
:10002A0000000C9400000C9400000C9400000C9446
:10003A0000000C9400000C9400000C9400000C9436
:10004A0000000C9400000C9400001027E8036400E0
:10005A000A00010000100001100001000000726592
:10006A007A6120666174746168692039383332377D
:10007A007230383933327530397564666F39696A66
:10008A006F666A6373646A6376736476276F6B302C
:10009A00333839726630776569706F6B706B76705A
:1000AA006B6473667670206466706470666C7664DE
:1000BA00666C6466646C5D766C64665D5B766C2007
:1000CA00424152444959412020202020202020200A
:1000DA00202020202020253032642525202252226B
:1000EA00200080C001000400660002007102EC00DA
:1000FA000000F894EE27ECBBF1E0FBBFEBBFE5BFD5
:10010A008DE0A2E0BB27ED938A95E9F780E098E0BD
:10011A00A0E6ED930197E9F7EEEEF0E0859195916F
:10012A00009761F0A591B59105901590BF01F00176
:10013A0005900D920197E1F7FB01F0CFEFE5EDBFD6
:10014A00E8E0EEBFC0E6D2E00C94AB00E0E0EABB28
:10015A00EBBBE7BBE8BBE4BBE5BBE1BBE2BBE3BF90
:10016A00E2BFECBFEFBDEEBDEDBDECBDE7BDE6BD48
:10017A00EBBDEABDE9BDE8BDE2BDE5BDE4BDE3BD59
:10018A00E9BFE5BFE4BFEAB9E0E8E8B9E0E0E0BF0B
:10019A00E6B9EDB9E6BFA0E10E9401034424E4E117
:1001AA004E1608F5E0E6F2E0FA93EA93E0EEF0E0A4
:1001BA00FA93EA93E42DFF27662777270E949A038A
:1001CA0084E00E946E022896E7E0EA93A0E00E948B
:1001DA00C202A0E6B2E00E94F002A4EFB1E00E94DF
:1001EA0080034394DCCFDACFFFCFBA93AA931A9352
:1001FA000A93AA81BB8112960E949203309759F101
:10020A00AA81BB8114960E9492038F01309761F0F4
:10021A000230E0E01E0798F0F80131978F01AA81B9
:10022A00BB811496ED93FC93AA81BB811296ED9142
:10023A00FD913196FE93EE933197AC81A083AA810A
:10024A00BB810E949203FF232AF0ED91FD91319622
:10025A00FE93EE9306C0AA81BB81EFEFFFEFED9309
:10026A00FC931981088125960895BA93AA93269733
:10027A000E949F0310E0AC85BD85E0E0F0E0ED93BD
:10028A00FC93EA89FB893196EA8BFB8B3197E491DF
:10029A002E2FE03009F415C1E12FE03039F4253270
:1002AA0011F411E002C00E9447030AC1E130A9F427
:1002BA00253219F40E94470302C112E040E000E02F
:1002CA002D3211F401E0FCC02B3211F44BE2F8C0DC
:1002DA00203211F440E2F4C002C0E23039F450E0B6
:1002EA0013E0203311F40068EBC003C0E33009F0D7
:1002FA00E7C0203310F02A3308F007C0AAE05A9F5B
:10030A00502DE22FE0535E0FDBC0E22FE33649F4B3
:10031A000E944E03E889F989A481AA930E94540392
:10032A00CEC0E33741F40E944E030E945A030E9452
:10033A002E031E2F0AC0E03761F40E944E030E946A
:10034A005A030E943A031E2F086002600F7730E0BA
:10035A0034C0E43611F0E93611F4046002C0E5371E
:10036A0031F4E4E5F0E0EE83FF8315E00CC0E835F4
:10037A0011F4086003C0E83709F0A1C0EEE5F0E027
:10038A00EE83FF8314E002FF14C00E944E030E9412
:10039A006403AB85AA233AF4EA85FB850E948E039F
:1003AA00EA87FB874DE2403011F01F5F01C00B7FE7
:1003BA0004C00E944E030E94640300FD11C0151779
:1003CA0078F407FF08C002FF04C00B7F242F1150E6
:1003DA0001C020E301C020E20E9447035150EFCF41
:1003EA00312F01FF17C03030A1F003FF06C0EE81A4
:1003FA00FF812591EE83FF8305C0AE81BF812D91D8
:10040A00AE83BF830E944703503009F051503150E8
:10041A00EACF4BC020E3EE81FF810E949603E88772
:10042A00F987EE81FF813296EE83FF83E885F985AD
:10043A00AA85BB85AE17BF0750F02F5FA885B9857F
:10044A00EA85FB85EA1BFB0BEA87FB87EFCF2A339A
:10045A0028F003FF02C0295F01C0295D04FD1AC00C
:10046A00213320F4A885B985119709F409C05317D7
:10047A0010F000FF01C013C020E207FF0BC020E309
:10048A00006102FF07C00B7F4A930E945403503059
:10049A0009F051500E944703503009F05150315031
:1004AA00A885B985129708F0B5CF00FF08C050306B
:1004BA0031F05150E0E2EA930E945403F8CF10E081
:1004CA00E0CEAC85BD850E9492030E94A603649685
:1004DA000895FF92F82E26970E94A1030E946C03AA
:1004EA00309719F4EFEFFFEF23C0DE0116960E9452
:1004FA008A038D010E946C03EE83FF83E0E0E887A4
:10050A00E987DE011A960E948A030E949203FA93EF
:10051A00EA931A930A93EAEFF0E0FA93EA93DE0178
:10052A001A96A3DE9F01AE81BF81E0E0EC93F90148
:10053A000E94A8032A96FF900895AA93EBB3EF703E
:10054A00AE2FE881E07FEA2BEBBB82E08A95F1F7D8
:10055A00DA9A82E08A95F1F7DA9882E08A95F1F7D9
:10056A0076C0AA93A881E9DFE881E295E883A881A9
:10057A00E4DF81E18A95F1F76AC0AA93E881F0E0A5
:10058A00EF58FD4FE081A981AE0FEBDF69809880BB
:10059A0022960895A2E00E947303ACE0E2DFA1E094
:1005AA000E947303E0E09E2E6E2E0895AA93A881FE
:1005BA00AA3011F0681448F0E0E0EA939394A92D68
:1005CA00DCDFA881AA3009F442C06394D89AA881D2
:1005DA00C8DFD8983CC0BA93AA931A93A981BA8162
:1005EA00ED91A983BA831E2FE03019F0A12FDEDF27
:1005FA00F5CF188123960895AA93EAB3E06FEABB70
:10060A00D29AD09AD19ADA98D898D9988880E881DB
:10061A00E058E0937302E881E054E0937402A4E1A5
:10062A00B0E00E9480030E9479030E9479030E942D
:10063A007903A0E282DF81E28A95F1F7A8E291DFED
:10064A00A4E08FDFA5E88DDFA6E08BDFA3DF21968C
:10065A000895BA93AA93A991B991EE27FF276D91AC
:10066A00662311F03196FBCF0895BA93AA93AA276D
:10067A00BB27E991F9910590002011F01196FBCF63
:10068A00FD0108952A93AD85BE85EF85F889099500
:10069A000895E889F9893497E88BF98B0895AD852F
:1006AA00BE85EF85F88909950895A889B9891496B0
:1006BA000E949203EE83FF83AE81BF810895A889C9
:1006CA00B98914960E949203EA87FB870895DE018E
:1006DA001C960E948A030E94920308950E94B60201
:1006EA00A3E0B0E00C948003A0E30E94A20281E29E
:1006FA008A95F1F70895109639F08AEF90E00197FC
:10070A00F1F7A8951197C9F708950024AF0DB01D08
:10071A000895F195E195F0400895ED91FC911197B6
:10072A0008950590F491E02D08957A936A93FA93C7
:10073A00EA9308955A934A933A932A931A930A93F7
:10074A0008955D814C813B812A8119810881089530
:00000001FF
