:0C0000000C943B000C9400000C940000D9
:10000C000C9400000C9400000C9400000C94000064
:10001C000C9400000C9400000C9400000C94000054
:10002C000C9400000C9400000C9400000C94000044
:10003C000C9400000C9400000C9400000C94000034
:10004C000C9400000C9400001027E80364000A00D4
:10005C00010000100001100001002533642525006B
:10006C0080C0020074026C000000F894EE27ECBB18
:10007C00F1E0FBBFEBBFE5BF8DE0A2E0BB27ED934A
:10008C008A95E9F780E098E0A0E6ED930197E9F70F
:10009C00EEE6F0E085919591009761F0A591B59110
:1000AC0005901590BF01F00105900D920197E1F7B5
:1000BC00FB01F0CFEFE5EDBFE8E0EEBFC0E6D2E02C
:1000CC000C94680000E010E020E030E0A0E1B0D03B
:1000DC007DD000E010E00536E0E01E070CF047C0D4
:1000EC002297E0E6F2E0FA93EA93E6E6F0E0FA9380
:1000FC00EA93F8010E9460030E94930384E00E943B
:10010C00BF022896E6E0EA93A0E053D0A0E6B2E066
:10011C007ED0F8010E945703DF01E4E6F0E00E9474
:10012C007803E883F98320E030E02031E0E03E07FB
:10013C007CF4D901AC59BD4FE881F9812E173F07EA
:10014C0014F4EFEF01C0E0E2EC932F5F3F4FEDCFE3
:10015C00E0E0EA93A1E02DD0A4E6B2E058D0A4E60A
:10016C00B0E00E94450322960F5F1F4FB4CFB1CF72
:10017C00FFCFAA93EBB3EF70AE2FE881E07FEA2BB1
:10018C00EBBB82E08A95F1F7DA9A82E08A95F1F777
:10019C00DA9882E08A95F1F776C0AA93A881E9DF14
:1001AC00E881E295E883A881E4DF81E18A95F1F7A3
:1001BC006AC0AA93E881F0E0EC58FD4FE081A98178
:1001CC00AE0FEBDF7980688022960895A2E00E9442
:1001DC000C03ACE0E2DFA1E00E940C03E0E06E2E29
:1001EC007E2E0895AA93A881AA3011F0791448F0B4
:1001FC00E0E0EA936394A62DDCDFA881AA3009F431
:10020C0042C07394D89AA881C8DFD8983CC0BA93DE
:10021C00AA931A93A981BA81ED91A983BA831E2F4F
:10022C00E03019F0A12FDEDFF5CF18812396089569
:10023C00AA93EAB3E06FEABBD29AD09AD19ADA9831
:10024C00D898D9989880E881E058E0937602E881B4
:10025C00E054E0937702A4E1B0E00E9445030E94D1
:10026C0012030E9412030E941203A0E282DF81E2B9
:10027C008A95F1F7A8E291DFA4E08FDFA5E88DDF86
:10028C00A6E08BDFA3DF21960895BA93AA931A9365
:10029C000A93AA81BB8112960E948B03309759F165
:1002AC00AA81BB8114960E948B038F01309761F059
:1002BC000230E0E01E0798F0F80131978F01AA8117
:1002CC00BB811496ED93FC93AA81BB811296ED91A0
:1002DC00FD913196FE93EE933197AC81A083AA8168
:1002EC00BB810E948B03FF232AF0ED91FD91319687
:1002FC00FE93EE9306C0AA81BB81EFEFFFEFED9367
:10030C00FC931981088125960895BA93AA93269790
:10031C000E94980310E0AC85BD85E0E0F0E0ED9321
:10032C00FC93EA89FB893196EA8BFB8B3197E4913C
:10033C002E2FE03009F415C1E12FE03039F42532CD
:10034C0011F411E002C00E9419030AC1E130A9F4B2
:10035C00253219F40E94190302C112E040E000E0BA
:10036C002D3211F401E0FCC02B3211F44BE2F8C039
:10037C00203211F440E2F4C002C0E23039F450E013
:10038C0013E0203311F40068EBC003C0E33009F034
:10039C00E7C0203310F02A3308F007C0AAE05A9FB8
:1003AC00502DE22FE0535E0FDBC0E22FE33649F411
:1003BC000E942003E889F989A481AA930E9426034C
:1003CC00CEC0E33741F40E9420030E942C030E940C
:1003DC00F3021E2F0AC0E03761F40E9420030E9432
:1003EC002C030E94FF021E2F086002600F7730E082
:1003FC0034C0E43611F0E93611F4046002C0E5377C
:10040C0031F4E4E5F0E0EE83FF8315E00CC0E83551
:10041C0011F4086003C0E83709F0A1C0EEE5F0E084
:10042C00EE83FF8314E002FF14C00E9420030E949D
:10043C003603AB85AA233AF4EA85FB850E94530365
:10044C00EA87FB874DE2403011F01F5F01C00B7F44
:10045C0004C00E9420030E94360300FD11C0151732
:10046C0078F407FF08C002FF04C00B7F242F115043
:10047C0001C020E301C020E20E9419035150EFCFCC
:10048C00312F01FF17C03030A1F003FF06C0EE8101
:10049C00FF812591EE83FF8305C0AE81BF812D9135
:1004AC00AE83BF830E941903503009F05150315074
:1004BC00EACF4BC020E3EE81FF810E948F03E887D7
:1004CC00F987EE81FF813296EE83FF83E885F9850B
:1004DC00AA85BB85AE17BF0750F02F5FA885B985DD
:1004EC00EA85FB85EA1BFB0BEA87FB87EFCF2A33F8
:1004FC0028F003FF02C0295F01C0295D04FD1AC06A
:10050C00213320F4A885B985119709F409C0531734
:10051C0010F000FF01C013C020E207FF0BC020E366
:10052C00006102FF07C00B7F4A930E9426035030E4
:10053C0009F051500E941903503009F051503150BC
:10054C00A885B985129708F0B5CF00FF08C05030C8
:10055C0031F05150E0E2EA930E942603F8CF10E00C
:10056C00E0CEAC85BD850E948B030E949F036496F0
:10057C000895FF92F82E26970E949A030E943E033C
:10058C00309719F4EFEFFFEF23C0DE0116960E94AF
:10059C004F038D010E943E03EE83FF83E0E0E8876A
:1005AC00E987DE011A960E944F030E948B03FA938F
:1005BC00EA931A930A93EBE4F1E0FA93EA93DE01DF
:1005CC001A96A3DE9F01AE81BF81E0E0EC93F901A6
:1005DC000E94A1032A96FF900895BA93AA93A99119
:1005EC00B991EE27FF276D91662311F03196FBCF61
:1005FC000895BA93AA93AA27BB27E991F99105907C
:10060C00002011F01196FBCFFD0108950E94D3003C
:10061C00A3E0B0E00C944503A0E30E94BF0081E28C
:10062C008A95F1F708952A93AD85BE85EF85F889F3
:10063C0009950895E889F9893497E88BF98B089521
:10064C00AD85BE85EF85F88909950895A889B98986
:10065C0014960E948B03EE83FF83AE81BF810895B5
:10066C00A889B98914960E948B03EA87FB870895A1
:10067C00DE011C960E944F030E948B030895109676
:10068C0039F08AEF90E00197F1F7A8951197C9F727
:10069C0008950024AF0DB01D0895F195E195F0403B
:1006AC000895EE0FFF1FEE0FFF1FEE0FFF1FEE0F53
:1006BC00FF1F08956F2F660F660B762F0895002489
:1006CC00112490E1AA0FBB1F001C111C0E1A1F0A4B
:1006DC0018F40E0E1F1E01C0A1609A9599F7FD012A
:1006EC00D001089504D0EBDF0EF4D7DF0895E89421
:1006FC00F7FF02C0D2DF6894B7FF06C0A095B09593
:10070C00119600F8039400FA0895ED91FC9111975D
:10071C0008950590F491E02D08957A936A93FA93D5
:10072C00EA9308955A934A933A932A931A930A9305
:10073C0008955D814C813B812A811981088108953E
:00000001FF
