:040000000C94330029
:100004000C9400000C9400000C9400000C9400006C
:100014000C9400000C9400000C9400000C9400005C
:100024000C9400000C9400000C9400000C9400004C
:100034000C9400000C9400000C9400000C9400003C
:100044000C9400000C9400000C9400000C9400002C
:100054001027E80364000A000100001000011000EA
:100064000100F894EE27ECBBF1E0FBBFEBBFE5BF6A
:100074008DE0A2E0BB27ED938A95E9F780E098E054
:10008400A0E6ED930197E9F7EFE5EDBFE8E0EEBFF9
:10009400C0E6D2E00C944E00EFEFEABBE0E0EBBB2D
:1000A400E7BBE0EFE8BBEFE0E4BBE0ECE5BBE0E09E
:1000B400E1BBE2BBE3BFE2BFECBFEFBDEEBDEDBD14
:1000C400ECBDE7BDE6BDEBBDEABDE9BDE8BDE2BD03
:1000D400E5BDE4BDE3BDE9BFE5BFE4BFEBB9E8E1DD
:1000E400EAB9E6E8E0BDE0E0E0BDE9E1E9B9E0E86D
:1000F400E8B9E0E0E0BFE6B9EDB9E6BF5BBAA0E974
:10010400B1E00E9488005394F9CFFFCF109639F0E4
:100114008AEF90E00197F1F7A8951197C9F7089530
:00000001FF
